{
  "contractName": "Auction",
  "abi": [
    {
      "inputs": [],
      "stateMutability": "nonpayable",
      "type": "constructor"
    },
    {
      "anonymous": false,
      "inputs": [
        {
          "indexed": false,
          "internalType": "address",
          "name": "CurrentBidder",
          "type": "address"
        },
        {
          "indexed": false,
          "internalType": "uint256",
          "name": "Current_BidAmount",
          "type": "uint256"
        },
        {
          "indexed": false,
          "internalType": "uint256",
          "name": "Previous_BidAmount",
          "type": "uint256"
        }
      ],
      "name": "BidPlace",
      "type": "event"
    },
    {
      "anonymous": false,
      "inputs": [
        {
          "indexed": false,
          "internalType": "address",
          "name": "SentFrom",
          "type": "address"
        },
        {
          "indexed": false,
          "internalType": "uint256",
          "name": "EthAmount",
          "type": "uint256"
        }
      ],
      "name": "RecievedEth",
      "type": "event"
    },
    {
      "inputs": [
        {
          "internalType": "address",
          "name": "",
          "type": "address"
        },
        {
          "internalType": "uint256",
          "name": "",
          "type": "uint256"
        }
      ],
      "name": "BidItems",
      "outputs": [
        {
          "internalType": "uint256",
          "name": "itemID",
          "type": "uint256"
        },
        {
          "internalType": "address",
          "name": "auctioneer_addr",
          "type": "address"
        },
        {
          "internalType": "string",
          "name": "item_url",
          "type": "string"
        },
        {
          "internalType": "uint256",
          "name": "InitialPrice",
          "type": "uint256"
        },
        {
          "internalType": "uint256",
          "name": "currentBid",
          "type": "uint256"
        },
        {
          "internalType": "address",
          "name": "soldto_addr",
          "type": "address"
        },
        {
          "internalType": "uint256",
          "name": "highest_bid",
          "type": "uint256"
        },
        {
          "internalType": "address",
          "name": "highest_Bidder",
          "type": "address"
        },
        {
          "internalType": "uint256",
          "name": "prev_higest_bid",
          "type": "uint256"
        },
        {
          "internalType": "address",
          "name": "prev_higest_bidder",
          "type": "address"
        }
      ],
      "stateMutability": "view",
      "type": "function",
      "constant": true
    },
    {
      "inputs": [
        {
          "internalType": "address",
          "name": "",
          "type": "address"
        }
      ],
      "name": "RegisteredAuctioneers",
      "outputs": [
        {
          "internalType": "bool",
          "name": "",
          "type": "bool"
        }
      ],
      "stateMutability": "view",
      "type": "function",
      "constant": true
    },
    {
      "inputs": [
        {
          "internalType": "uint256",
          "name": "",
          "type": "uint256"
        }
      ],
      "name": "RegisteredAuctioneersAddresses",
      "outputs": [
        {
          "internalType": "address",
          "name": "",
          "type": "address"
        }
      ],
      "stateMutability": "view",
      "type": "function",
      "constant": true
    },
    {
      "stateMutability": "payable",
      "type": "receive",
      "payable": true
    },
    {
      "inputs": [],
      "name": "RegisterAsAuctioneer",
      "outputs": [],
      "stateMutability": "nonpayable",
      "type": "function"
    },
    {
      "inputs": [
        {
          "internalType": "string",
          "name": "_item_url",
          "type": "string"
        },
        {
          "internalType": "uint256",
          "name": "_InitialPrice",
          "type": "uint256"
        },
        {
          "internalType": "uint256",
          "name": "_currentBid",
          "type": "uint256"
        }
      ],
      "name": "RegisterBidItem",
      "outputs": [],
      "stateMutability": "nonpayable",
      "type": "function"
    },
    {
      "inputs": [
        {
          "internalType": "uint256",
          "name": "amount",
          "type": "uint256"
        },
        {
          "internalType": "address",
          "name": "Auctioneer",
          "type": "address"
        },
        {
          "internalType": "uint256",
          "name": "itemID",
          "type": "uint256"
        }
      ],
      "name": "Bid",
      "outputs": [],
      "stateMutability": "payable",
      "type": "function",
      "payable": true
    },
    {
      "inputs": [],
      "name": "GetRefund",
      "outputs": [],
      "stateMutability": "payable",
      "type": "function",
      "payable": true
    },
    {
      "inputs": [
        {
          "internalType": "address",
          "name": "Auctioneer",
          "type": "address"
        },
        {
          "internalType": "uint256",
          "name": "itemID",
          "type": "uint256"
        }
      ],
      "name": "TransferEthToOwner",
      "outputs": [],
      "stateMutability": "payable",
      "type": "function",
      "payable": true
    },
    {
      "inputs": [
        {
          "internalType": "address",
          "name": "_auctioneer",
          "type": "address"
        }
      ],
      "name": "GetBidItem",
      "outputs": [
        {
          "components": [
            {
              "internalType": "uint256",
              "name": "itemID",
              "type": "uint256"
            },
            {
              "internalType": "address",
              "name": "auctioneer_addr",
              "type": "address"
            },
            {
              "internalType": "string",
              "name": "item_url",
              "type": "string"
            },
            {
              "internalType": "uint256",
              "name": "InitialPrice",
              "type": "uint256"
            },
            {
              "internalType": "uint256",
              "name": "currentBid",
              "type": "uint256"
            },
            {
              "internalType": "address",
              "name": "soldto_addr",
              "type": "address"
            },
            {
              "internalType": "uint256",
              "name": "highest_bid",
              "type": "uint256"
            },
            {
              "internalType": "address",
              "name": "highest_Bidder",
              "type": "address"
            },
            {
              "internalType": "uint256",
              "name": "prev_higest_bid",
              "type": "uint256"
            },
            {
              "internalType": "address",
              "name": "prev_higest_bidder",
              "type": "address"
            }
          ],
          "internalType": "struct Auction.Item[]",
          "name": "",
          "type": "tuple[]"
        }
      ],
      "stateMutability": "view",
      "type": "function",
      "constant": true
    },
    {
      "inputs": [],
      "name": "GetOwner",
      "outputs": [
        {
          "internalType": "address",
          "name": "",
          "type": "address"
        }
      ],
      "stateMutability": "view",
      "type": "function",
      "constant": true
    },
    {
      "inputs": [
        {
          "internalType": "address",
          "name": "_addr",
          "type": "address"
        }
      ],
      "name": "GetRegistrationStatus",
      "outputs": [
        {
          "internalType": "bool",
          "name": "",
          "type": "bool"
        }
      ],
      "stateMutability": "view",
      "type": "function",
      "constant": true
    },
    {
      "inputs": [],
      "name": "GetAddressesCount",
      "outputs": [
        {
          "internalType": "uint256",
          "name": "",
          "type": "uint256"
        }
      ],
      "stateMutability": "view",
      "type": "function",
      "constant": true
    },
    {
      "inputs": [],
      "name": "GetAddresses",
      "outputs": [
        {
          "internalType": "address[]",
          "name": "",
          "type": "address[]"
        }
      ],
      "stateMutability": "view",
      "type": "function",
      "constant": true
    },
    {
      "inputs": [
        {
          "internalType": "uint256",
          "name": "index",
          "type": "uint256"
        }
      ],
      "name": "GetRegisteredAddresses",
      "outputs": [
        {
          "internalType": "address",
          "name": "",
          "type": "address"
        }
      ],
      "stateMutability": "view",
      "type": "function",
      "constant": true
    },
    {
      "inputs": [
        {
          "internalType": "address",
          "name": "Auctioneer",
          "type": "address"
        },
        {
          "internalType": "uint256",
          "name": "itemID",
          "type": "uint256"
        }
      ],
      "name": "ShowCurrentBid",
      "outputs": [
        {
          "internalType": "address",
          "name": "",
          "type": "address"
        },
        {
          "internalType": "uint256",
          "name": "",
          "type": "uint256"
        }
      ],
      "stateMutability": "view",
      "type": "function",
      "constant": true
    },
    {
      "inputs": [
        {
          "internalType": "address",
          "name": "Auctioneer",
          "type": "address"
        },
        {
          "internalType": "uint256",
          "name": "itemID",
          "type": "uint256"
        }
      ],
      "name": "getCurrentHighestBid",
      "outputs": [
        {
          "internalType": "address",
          "name": "",
          "type": "address"
        },
        {
          "internalType": "uint256",
          "name": "",
          "type": "uint256"
        }
      ],
      "stateMutability": "view",
      "type": "function",
      "constant": true
    },
    {
      "inputs": [
        {
          "internalType": "address",
          "name": "Auctioneer",
          "type": "address"
        },
        {
          "internalType": "uint256",
          "name": "itemID",
          "type": "uint256"
        }
      ],
      "name": "getPrevHighestBid",
      "outputs": [
        {
          "internalType": "address",
          "name": "",
          "type": "address"
        },
        {
          "internalType": "uint256",
          "name": "",
          "type": "uint256"
        }
      ],
      "stateMutability": "view",
      "type": "function",
      "constant": true
    },
    {
      "inputs": [],
      "name": "getContractBalance",
      "outputs": [
        {
          "internalType": "uint256",
          "name": "",
          "type": "uint256"
        }
      ],
      "stateMutability": "view",
      "type": "function",
      "constant": true
    }
  ],
  "bytecode": "0x608060405234801561001057600080fd5b50336000806101000a81548173ffffffffffffffffffffffffffffffffffffffff021916908373ffffffffffffffffffffffffffffffffffffffff160217905550612c32806100606000396000f3fe60806040526004361061010d5760003560e01c80638449b17411610095578063dcd726e111610064578063dcd726e1146103dc578063e9b4bd83146103f8578063ee860bdc14610402578063f026e44f14610440578063fe6078d8146104865761014d565b80638449b174146102fb578063b75a407914610324578063c932b93514610362578063cc6472071461039f5761014d565b806335158e6d116100dc57806335158e6d146102355780634430ce6d1461024c57806348040eb0146102895780636f9fb98a146102b457806378a01fb0146102df5761014d565b8063048a2856146101525780630ae50a391461018f57806320a564e6146101ba5780632e45568a146101f85761014d565b3661014d577f2ee94319febfab319e2fb7f26758029c16d689ff70557c0c14842862574e9e173334604051610143929190611f57565b60405180910390a1005b600080fd5b34801561015e57600080fd5b5061017960048036038101906101749190611fc0565b6104b1565b6040516101869190611fed565b60405180910390f35b34801561019b57600080fd5b506101a46104f0565b6040516101b19190611fed565b60405180910390f35b3480156101c657600080fd5b506101e160048036038101906101dc9190612034565b610519565b6040516101ef929190611f57565b60405180910390f35b34801561020457600080fd5b5061021f600480360381019061021a9190612074565b610625565b60405161022c91906120bc565b60405180910390f35b34801561024157600080fd5b5061024a610645565b005b34801561025857600080fd5b50610273600480360381019061026e9190612074565b610795565b60405161028091906120bc565b60405180910390f35b34801561029557600080fd5b5061029e6107eb565b6040516102ab91906120d7565b60405180910390f35b3480156102c057600080fd5b506102c9610887565b6040516102d691906120d7565b60405180910390f35b6102f960048036038101906102f49190612034565b61088f565b005b34801561030757600080fd5b50610322600480360381019061031d9190612238565b610aa4565b005b34801561033057600080fd5b5061034b60048036038101906103469190612034565b610e0a565b604051610359929190611f57565b60405180910390f35b34801561036e57600080fd5b5061038960048036038101906103849190612074565b610f16565b60405161039691906124e9565b60405180910390f35b3480156103ab57600080fd5b506103c660048036038101906103c19190611fc0565b6111d1565b6040516103d39190611fed565b60405180910390f35b6103f660048036038101906103f1919061250b565b6112a8565b005b610400611959565b005b34801561040e57600080fd5b5061042960048036038101906104249190612034565b611b47565b604051610437929190611f57565b60405180910390f35b34801561044c57600080fd5b5061046760048036038101906104629190612034565b611c53565b60405161047d9a999897969594939291906125a8565b60405180910390f35b34801561049257600080fd5b5061049b611dcc565b6040516104a891906126fa565b60405180910390f35b600381815481106104c157600080fd5b906000526020600020016000915054906101000a900473ffffffffffffffffffffffffffffffffffffffff1681565b60008060009054906101000a900473ffffffffffffffffffffffffffffffffffffffff16905090565b600080600460008573ffffffffffffffffffffffffffffffffffffffff1673ffffffffffffffffffffffffffffffffffffffff168152602001908152602001600020600184610568919061274b565b815481106105795761057861277f565b5b90600052602060002090600a020160070160009054906101000a900473ffffffffffffffffffffffffffffffffffffffff16600460008673ffffffffffffffffffffffffffffffffffffffff1673ffffffffffffffffffffffffffffffffffffffff1681526020019081526020016000206001856105f7919061274b565b815481106106085761060761277f565b5b90600052602060002090600a020160060154915091509250929050565b60056020528060005260406000206000915054906101000a900460ff1681565b60001515600560003373ffffffffffffffffffffffffffffffffffffffff1673ffffffffffffffffffffffffffffffffffffffff16815260200190815260200160002060009054906101000a900460ff161515146106d8576040517f08c379a00000000000000000000000000000000000000000000000000000000081526004016106cf906127fa565b60405180910390fd5b6001600560003373ffffffffffffffffffffffffffffffffffffffff1673ffffffffffffffffffffffffffffffffffffffff16815260200190815260200160002060006101000a81548160ff0219169083151502179055506003339080600181540180825580915050600190039060005260206000200160009091909190916101000a81548173ffffffffffffffffffffffffffffffffffffffff021916908373ffffffffffffffffffffffffffffffffffffffff160217905550565b6000600560008373ffffffffffffffffffffffffffffffffffffffff1673ffffffffffffffffffffffffffffffffffffffff16815260200190815260200160002060009054906101000a900460ff169050919050565b60008060009054906101000a900473ffffffffffffffffffffffffffffffffffffffff1673ffffffffffffffffffffffffffffffffffffffff163373ffffffffffffffffffffffffffffffffffffffff161461087c576040517f08c379a000000000000000000000000000000000000000000000000000000000815260040161087390612866565b60405180910390fd5b600380549050905090565b600047905090565b60008054906101000a900473ffffffffffffffffffffffffffffffffffffffff1673ffffffffffffffffffffffffffffffffffffffff163373ffffffffffffffffffffffffffffffffffffffff161461091d576040517f08c379a000000000000000000000000000000000000000000000000000000000815260040161091490612866565b60405180910390fd5b60018161092a919061274b565b9050600047905080600460008573ffffffffffffffffffffffffffffffffffffffff1673ffffffffffffffffffffffffffffffffffffffff16815260200190815260200160002083815481106109835761098261277f565b5b90600052602060002090600a02016006015411156109d6576040517f08c379a00000000000000000000000000000000000000000000000000000000081526004016109cd906128d2565b60405180910390fd5b60008054906101000a900473ffffffffffffffffffffffffffffffffffffffff1673ffffffffffffffffffffffffffffffffffffffff166108fc600460008673ffffffffffffffffffffffffffffffffffffffff1673ffffffffffffffffffffffffffffffffffffffff1681526020019081526020016000208481548110610a6157610a6061277f565b5b90600052602060002090600a0201600601549081150290604051600060405180830381858888f19350505050158015610a9e573d6000803e3d6000fd5b50505050565b60011515600560003373ffffffffffffffffffffffffffffffffffffffff1673ffffffffffffffffffffffffffffffffffffffff16815260200190815260200160002060009054906101000a900460ff16151514610b37576040517f08c379a0000000000000000000000000000000000000000000000000000000008152600401610b2e9061293e565b60405180910390fd5b6000600460003373ffffffffffffffffffffffffffffffffffffffff1673ffffffffffffffffffffffffffffffffffffffff168152602001908152602001600020805490509050600460003373ffffffffffffffffffffffffffffffffffffffff1673ffffffffffffffffffffffffffffffffffffffff168152602001908152602001600020604051806101400160405280600184610bd6919061295e565b81526020013373ffffffffffffffffffffffffffffffffffffffff168152602001868152602001858152602001848152602001600073ffffffffffffffffffffffffffffffffffffffff16815260200160008152602001600073ffffffffffffffffffffffffffffffffffffffff16815260200160008152602001600073ffffffffffffffffffffffffffffffffffffffff1681525090806001815401808255809150506001900390600052602060002090600a02016000909190919091506000820151816000015560208201518160010160006101000a81548173ffffffffffffffffffffffffffffffffffffffff021916908373ffffffffffffffffffffffffffffffffffffffff1602179055506040820151816002019080519060200190610d02929190611e5a565b50606082015181600301556080820151816004015560a08201518160050160006101000a81548173ffffffffffffffffffffffffffffffffffffffff021916908373ffffffffffffffffffffffffffffffffffffffff16021790555060c0820151816006015560e08201518160070160006101000a81548173ffffffffffffffffffffffffffffffffffffffff021916908373ffffffffffffffffffffffffffffffffffffffff16021790555061010082015181600801556101208201518160090160006101000a81548173ffffffffffffffffffffffffffffffffffffffff021916908373ffffffffffffffffffffffffffffffffffffffff160217905550505050505050565b600080600460008573ffffffffffffffffffffffffffffffffffffffff1673ffffffffffffffffffffffffffffffffffffffff168152602001908152602001600020600184610e59919061274b565b81548110610e6a57610e6961277f565b5b90600052602060002090600a020160070160009054906101000a900473ffffffffffffffffffffffffffffffffffffffff16600460008673ffffffffffffffffffffffffffffffffffffffff1673ffffffffffffffffffffffffffffffffffffffff168152602001908152602001600020600185610ee8919061274b565b81548110610ef957610ef861277f565b5b90600052602060002090600a020160060154915091509250929050565b6060600460008373ffffffffffffffffffffffffffffffffffffffff1673ffffffffffffffffffffffffffffffffffffffff168152602001908152602001600020805480602002602001604051908101604052809291908181526020016000905b828210156111c657838290600052602060002090600a020160405180610140016040529081600082015481526020016001820160009054906101000a900473ffffffffffffffffffffffffffffffffffffffff1673ffffffffffffffffffffffffffffffffffffffff1673ffffffffffffffffffffffffffffffffffffffff16815260200160028201805461100b906129e3565b80601f0160208091040260200160405190810160405280929190818152602001828054611037906129e3565b80156110845780601f1061105957610100808354040283529160200191611084565b820191906000526020600020905b81548152906001019060200180831161106757829003601f168201915b5050505050815260200160038201548152602001600482015481526020016005820160009054906101000a900473ffffffffffffffffffffffffffffffffffffffff1673ffffffffffffffffffffffffffffffffffffffff1673ffffffffffffffffffffffffffffffffffffffff168152602001600682015481526020016007820160009054906101000a900473ffffffffffffffffffffffffffffffffffffffff1673ffffffffffffffffffffffffffffffffffffffff1673ffffffffffffffffffffffffffffffffffffffff168152602001600882015481526020016009820160009054906101000a900473ffffffffffffffffffffffffffffffffffffffff1673ffffffffffffffffffffffffffffffffffffffff1673ffffffffffffffffffffffffffffffffffffffff168152505081526020019060010190610f77565b505050509050919050565b60008060009054906101000a900473ffffffffffffffffffffffffffffffffffffffff1673ffffffffffffffffffffffffffffffffffffffff163373ffffffffffffffffffffffffffffffffffffffff1614611262576040517f08c379a000000000000000000000000000000000000000000000000000000000815260040161125990612866565b60405180910390fd5b600382815481106112765761127561277f565b5b9060005260206000200160009054906101000a900473ffffffffffffffffffffffffffffffffffffffff169050919050565b6001816112b5919061274b565b9050600460008373ffffffffffffffffffffffffffffffffffffffff1673ffffffffffffffffffffffffffffffffffffffff16815260200190815260200160002081815481106113085761130761277f565b5b90600052602060002090600a02016006015483111561191957600460008373ffffffffffffffffffffffffffffffffffffffff1673ffffffffffffffffffffffffffffffffffffffff16815260200190815260200160002081815481106113725761137161277f565b5b90600052602060002090600a020160060154600460008473ffffffffffffffffffffffffffffffffffffffff1673ffffffffffffffffffffffffffffffffffffffff16815260200190815260200160002082815481106113d5576113d461277f565b5b90600052602060002090600a020160080181905550600460008373ffffffffffffffffffffffffffffffffffffffff1673ffffffffffffffffffffffffffffffffffffffff168152602001908152602001600020818154811061143b5761143a61277f565b5b90600052602060002090600a020160070160009054906101000a900473ffffffffffffffffffffffffffffffffffffffff16600460008473ffffffffffffffffffffffffffffffffffffffff1673ffffffffffffffffffffffffffffffffffffffff16815260200190815260200160002082815481106114be576114bd61277f565b5b90600052602060002090600a020160090160006101000a81548173ffffffffffffffffffffffffffffffffffffffff021916908373ffffffffffffffffffffffffffffffffffffffff16021790555082600460008473ffffffffffffffffffffffffffffffffffffffff1673ffffffffffffffffffffffffffffffffffffffff168152602001908152602001600020828154811061155f5761155e61277f565b5b90600052602060002090600a02016006018190555033600460008473ffffffffffffffffffffffffffffffffffffffff1673ffffffffffffffffffffffffffffffffffffffff16815260200190815260200160002082815481106115c6576115c561277f565b5b90600052602060002090600a020160070160006101000a81548173ffffffffffffffffffffffffffffffffffffffff021916908373ffffffffffffffffffffffffffffffffffffffff16021790555082600160003373ffffffffffffffffffffffffffffffffffffffff1673ffffffffffffffffffffffffffffffffffffffff16815260200190815260200160002081905550600460008373ffffffffffffffffffffffffffffffffffffffff1673ffffffffffffffffffffffffffffffffffffffff16815260200190815260200160002081815481106116aa576116a961277f565b5b90600052602060002090600a02016008015460026000600460008673ffffffffffffffffffffffffffffffffffffffff1673ffffffffffffffffffffffffffffffffffffffff16815260200190815260200160002084815481106117115761171061277f565b5b90600052602060002090600a020160090160009054906101000a900473ffffffffffffffffffffffffffffffffffffffff1673ffffffffffffffffffffffffffffffffffffffff1673ffffffffffffffffffffffffffffffffffffffff168152602001908152602001600020600082825461178c919061295e565b925050819055507f147d0f5a34a59737b812d157644b442fdb1c8fe124312a69d82947967a73241d600460008473ffffffffffffffffffffffffffffffffffffffff1673ffffffffffffffffffffffffffffffffffffffff16815260200190815260200160002082815481106118055761180461277f565b5b90600052602060002090600a020160070160009054906101000a900473ffffffffffffffffffffffffffffffffffffffff16600460008573ffffffffffffffffffffffffffffffffffffffff1673ffffffffffffffffffffffffffffffffffffffff16815260200190815260200160002083815481106118885761188761277f565b5b90600052602060002090600a020160060154600460008673ffffffffffffffffffffffffffffffffffffffff1673ffffffffffffffffffffffffffffffffffffffff16815260200190815260200160002084815481106118eb576118ea61277f565b5b90600052602060002090600a02016008015460405161190c93929190612a15565b60405180910390a1611954565b6040517f08c379a000000000000000000000000000000000000000000000000000000000815260040161194b90612a98565b60405180910390fd5b505050565b6000600260003373ffffffffffffffffffffffffffffffffffffffff1673ffffffffffffffffffffffffffffffffffffffff168152602001908152602001600020549050600047905060008054906101000a900473ffffffffffffffffffffffffffffffffffffffff1673ffffffffffffffffffffffffffffffffffffffff163373ffffffffffffffffffffffffffffffffffffffff161415611a31576040517f08c379a0000000000000000000000000000000000000000000000000000000008152600401611a2890612b04565b60405180910390fd5b60008211611a74576040517f08c379a0000000000000000000000000000000000000000000000000000000008152600401611a6b90612b70565b60405180910390fd5b80821115611ab7576040517f08c379a0000000000000000000000000000000000000000000000000000000008152600401611aae90612bdc565b60405180910390fd5b6000600260003373ffffffffffffffffffffffffffffffffffffffff1673ffffffffffffffffffffffffffffffffffffffff168152602001908152602001600020819055503373ffffffffffffffffffffffffffffffffffffffff166108fc839081150290604051600060405180830381858888f19350505050158015611b42573d6000803e3d6000fd5b505050565b600080600460008573ffffffffffffffffffffffffffffffffffffffff1673ffffffffffffffffffffffffffffffffffffffff168152602001908152602001600020600184611b96919061274b565b81548110611ba757611ba661277f565b5b90600052602060002090600a020160090160009054906101000a900473ffffffffffffffffffffffffffffffffffffffff16600460008673ffffffffffffffffffffffffffffffffffffffff1673ffffffffffffffffffffffffffffffffffffffff168152602001908152602001600020600185611c25919061274b565b81548110611c3657611c3561277f565b5b90600052602060002090600a020160080154915091509250929050565b60046020528160005260406000208181548110611c6f57600080fd5b90600052602060002090600a0201600091509150508060000154908060010160009054906101000a900473ffffffffffffffffffffffffffffffffffffffff1690806002018054611cbf906129e3565b80601f0160208091040260200160405190810160405280929190818152602001828054611ceb906129e3565b8015611d385780601f10611d0d57610100808354040283529160200191611d38565b820191906000526020600020905b815481529060010190602001808311611d1b57829003601f168201915b5050505050908060030154908060040154908060050160009054906101000a900473ffffffffffffffffffffffffffffffffffffffff16908060060154908060070160009054906101000a900473ffffffffffffffffffffffffffffffffffffffff16908060080154908060090160009054906101000a900473ffffffffffffffffffffffffffffffffffffffff1690508a565b60606003805480602002602001604051908101604052809291908181526020018280548015611e5057602002820191906000526020600020905b8160009054906101000a900473ffffffffffffffffffffffffffffffffffffffff1673ffffffffffffffffffffffffffffffffffffffff1681526020019060010190808311611e06575b5050505050905090565b828054611e66906129e3565b90600052602060002090601f016020900481019282611e885760008555611ecf565b82601f10611ea157805160ff1916838001178555611ecf565b82800160010185558215611ecf579182015b82811115611ece578251825591602001919060010190611eb3565b5b509050611edc9190611ee0565b5090565b5b80821115611ef9576000816000905550600101611ee1565b5090565b600073ffffffffffffffffffffffffffffffffffffffff82169050919050565b6000611f2882611efd565b9050919050565b611f3881611f1d565b82525050565b6000819050919050565b611f5181611f3e565b82525050565b6000604082019050611f6c6000830185611f2f565b611f796020830184611f48565b9392505050565b6000604051905090565b600080fd5b600080fd5b611f9d81611f3e565b8114611fa857600080fd5b50565b600081359050611fba81611f94565b92915050565b600060208284031215611fd657611fd5611f8a565b5b6000611fe484828501611fab565b91505092915050565b60006020820190506120026000830184611f2f565b92915050565b61201181611f1d565b811461201c57600080fd5b50565b60008135905061202e81612008565b92915050565b6000806040838503121561204b5761204a611f8a565b5b60006120598582860161201f565b925050602061206a85828601611fab565b9150509250929050565b60006020828403121561208a57612089611f8a565b5b60006120988482850161201f565b91505092915050565b60008115159050919050565b6120b6816120a1565b82525050565b60006020820190506120d160008301846120ad565b92915050565b60006020820190506120ec6000830184611f48565b92915050565b600080fd5b600080fd5b6000601f19601f8301169050919050565b7f4e487b7100000000000000000000000000000000000000000000000000000000600052604160045260246000fd5b612145826120fc565b810181811067ffffffffffffffff821117156121645761216361210d565b5b80604052505050565b6000612177611f80565b9050612183828261213c565b919050565b600067ffffffffffffffff8211156121a3576121a261210d565b5b6121ac826120fc565b9050602081019050919050565b82818337600083830152505050565b60006121db6121d684612188565b61216d565b9050828152602081018484840111156121f7576121f66120f7565b5b6122028482856121b9565b509392505050565b600082601f83011261221f5761221e6120f2565b5b813561222f8482602086016121c8565b91505092915050565b60008060006060848603121561225157612250611f8a565b5b600084013567ffffffffffffffff81111561226f5761226e611f8f565b5b61227b8682870161220a565b935050602061228c86828701611fab565b925050604061229d86828701611fab565b9150509250925092565b600081519050919050565b600082825260208201905092915050565b6000819050602082019050919050565b6122dc81611f3e565b82525050565b6122eb81611f1d565b82525050565b600081519050919050565b600082825260208201905092915050565b60005b8381101561232b578082015181840152602081019050612310565b8381111561233a576000848401525b50505050565b600061234b826122f1565b61235581856122fc565b935061236581856020860161230d565b61236e816120fc565b840191505092915050565b60006101408301600083015161239260008601826122d3565b5060208301516123a560208601826122e2565b50604083015184820360408601526123bd8282612340565b91505060608301516123d260608601826122d3565b5060808301516123e560808601826122d3565b5060a08301516123f860a08601826122e2565b5060c083015161240b60c08601826122d3565b5060e083015161241e60e08601826122e2565b506101008301516124336101008601826122d3565b506101208301516124486101208601826122e2565b508091505092915050565b600061245f8383612379565b905092915050565b6000602082019050919050565b600061247f826122a7565b61248981856122b2565b93508360208202850161249b856122c3565b8060005b858110156124d757848403895281516124b88582612453565b94506124c383612467565b925060208a0199505060018101905061249f565b50829750879550505050505092915050565b600060208201905081810360008301526125038184612474565b905092915050565b60008060006060848603121561252457612523611f8a565b5b600061253286828701611fab565b93505060206125438682870161201f565b925050604061255486828701611fab565b9150509250925092565b600082825260208201905092915050565b600061257a826122f1565b612584818561255e565b935061259481856020860161230d565b61259d816120fc565b840191505092915050565b6000610140820190506125be600083018d611f48565b6125cb602083018c611f2f565b81810360408301526125dd818b61256f565b90506125ec606083018a611f48565b6125f96080830189611f48565b61260660a0830188611f2f565b61261360c0830187611f48565b61262060e0830186611f2f565b61262e610100830185611f48565b61263c610120830184611f2f565b9b9a5050505050505050505050565b600081519050919050565b600082825260208201905092915050565b6000819050602082019050919050565b600061268383836122e2565b60208301905092915050565b6000602082019050919050565b60006126a78261264b565b6126b18185612656565b93506126bc83612667565b8060005b838110156126ed5781516126d48882612677565b97506126df8361268f565b9250506001810190506126c0565b5085935050505092915050565b60006020820190508181036000830152612714818461269c565b905092915050565b7f4e487b7100000000000000000000000000000000000000000000000000000000600052601160045260246000fd5b600061275682611f3e565b915061276183611f3e565b9250828210156127745761277361271c565b5b828203905092915050565b7f4e487b7100000000000000000000000000000000000000000000000000000000600052603260045260246000fd5b7f416c726561647920526567697374657265640000000000000000000000000000600082015250565b60006127e460128361255e565b91506127ef826127ae565b602082019050919050565b60006020820190508181036000830152612813816127d7565b9050919050565b7f4e6f7420746865204f776e657200000000000000000000000000000000000000600082015250565b6000612850600d8361255e565b915061285b8261281a565b602082019050919050565b6000602082019050818103600083015261287f81612843565b9050919050565b7f496e73756666696369656e7420416d6f756e7420696e20436f6e747261637400600082015250565b60006128bc601f8361255e565b91506128c782612886565b602082019050919050565b600060208201905081810360008301526128eb816128af565b9050919050565b7f4e6f7420526567697374657265642061732061756374696f6e65657200000000600082015250565b6000612928601c8361255e565b9150612933826128f2565b602082019050919050565b600060208201905081810360008301526129578161291b565b9050919050565b600061296982611f3e565b915061297483611f3e565b9250827fffffffffffffffffffffffffffffffffffffffffffffffffffffffffffffffff038211156129a9576129a861271c565b5b828201905092915050565b7f4e487b7100000000000000000000000000000000000000000000000000000000600052602260045260246000fd5b600060028204905060018216806129fb57607f821691505b60208210811415612a0f57612a0e6129b4565b5b50919050565b6000606082019050612a2a6000830186611f2f565b612a376020830185611f48565b612a446040830184611f48565b949350505050565b7f416d6f756e7420746f6f204c6f77000000000000000000000000000000000000600082015250565b6000612a82600e8361255e565b9150612a8d82612a4c565b602082019050919050565b60006020820190508181036000830152612ab181612a75565b9050919050565b7f4f776e65722063616e206e6f7420496e69746961746520526566756e64000000600082015250565b6000612aee601d8361255e565b9150612af982612ab8565b602082019050919050565b60006020820190508181036000830152612b1d81612ae1565b9050919050565b7f4e6f2050656e64696e672052657475726e730000000000000000000000000000600082015250565b6000612b5a60128361255e565b9150612b6582612b24565b602082019050919050565b60006020820190508181036000830152612b8981612b4d565b9050919050565b7f4e6f7420656e6f7567682046756e647320496e20436f6e747261637400000000600082015250565b6000612bc6601c8361255e565b9150612bd182612b90565b602082019050919050565b60006020820190508181036000830152612bf581612bb9565b905091905056fea264697066735822122069a1d8feb4448ea82126d5f6988ad973cd730de1b9f227089512815b19565d0964736f6c634300080b0033",
  "immutableReferences": {},
  "source": "// SPDX-License-Identifier: MIT\r\npragma solidity >=0.4.22 <0.9.0;\r\n\r\ncontract Auction\r\n{\r\n    struct Item\r\n    {\r\n       uint itemID;\r\n       address auctioneer_addr;\r\n       string item_url;\r\n       uint InitialPrice;\r\n       uint currentBid;\r\n       address soldto_addr;\r\n       uint highest_bid;\r\n       address highest_Bidder;\r\n       uint prev_higest_bid;\r\n       address prev_higest_bidder;\r\n    }\r\n\r\n    address AuctionOwner; // address of auction owner\r\n    mapping(address=>uint) bidders; // address of biders which map to the amount of bid placed\r\n    mapping(address=>uint) Pending_returns; // address of all bidders that were outbidded and are eligible for a return amount\r\n    \r\n address[] public RegisteredAuctioneersAddresses;\r\n    mapping(address=>Item[]) public BidItems; // store BidItems\r\n    mapping(address=>bool) public RegisteredAuctioneers; // register as an auctioneer\r\n    \r\n    modifier isAlreadyRegistered(){ // check if an address is already registered\r\n       \r\n       require(RegisteredAuctioneers[msg.sender] == false , 'Already Registered');\r\n       _;\r\n    }\r\n       modifier isRegistered(){ // check if an address is registered as auctioneer\r\n       \r\n       require(RegisteredAuctioneers[msg.sender] == true , 'Not Registered as auctioneer');\r\n       _;\r\n    }\r\n        modifier isOwner()\r\n    {\r\n        require(msg.sender == AuctionOwner, 'Not the Owner');\r\n        _;\r\n    }\r\n        event BidPlace(\r\n        address CurrentBidder,\r\n        uint Current_BidAmount,\r\n        uint Previous_BidAmount\r\n    );\r\n\r\n    event RecievedEth(\r\n        address SentFrom,\r\n        uint EthAmount\r\n    );\r\n    constructor()\r\n    {\r\n        AuctionOwner = msg.sender;\r\n    }\r\n\r\n    receive() external payable{\r\n        //payable(Auction_Owner).transfer(msg.value);\r\n        emit RecievedEth(msg.sender, msg.value);\r\n    }\r\n   \r\n    function RegisterAsAuctioneer()public isAlreadyRegistered { // Register as an auctioneer\r\n        RegisteredAuctioneers[msg.sender] = true;\r\n        RegisteredAuctioneersAddresses.push(msg.sender);\r\n    }\r\n\r\n    // Registed a Bid Item\r\n    function RegisterBidItem(string memory _item_url,uint _InitialPrice,uint _currentBid) public isRegistered {\r\n        \r\n        uint ItemNumber = BidItems[msg.sender].length; // get  length of current items of the auctioneer\r\n        BidItems[msg.sender].push(Item(ItemNumber+1,msg.sender,_item_url,_InitialPrice,_currentBid,address(0),0,address(0),0,address(0))); // set item \r\n\r\n    }\r\n    \r\n    function Bid(uint amount,address Auctioneer , uint itemID) payable public {\r\n        itemID = itemID-1;\r\n\r\n        //require(block.timestamp < Creation_time + 2 days,'Auction Time Ended');\r\n        if(amount >BidItems[Auctioneer][itemID].highest_bid){\r\n            \r\n            BidItems[Auctioneer][itemID].prev_higest_bid = BidItems[Auctioneer][itemID].highest_bid;\r\n            BidItems[Auctioneer][itemID].prev_higest_bidder = BidItems[Auctioneer][itemID].highest_Bidder;\r\n\r\n            BidItems[Auctioneer][itemID].highest_bid = amount;\r\n            BidItems[Auctioneer][itemID].highest_Bidder = msg.sender;\r\n\r\n            bidders[msg.sender] = amount;\r\n            \r\n            Pending_returns[BidItems[Auctioneer][itemID].prev_higest_bidder] += BidItems[Auctioneer][itemID].prev_higest_bid;\r\n     \r\n            emit BidPlace(BidItems[Auctioneer][itemID].highest_Bidder, BidItems[Auctioneer][itemID].highest_bid, BidItems[Auctioneer][itemID].prev_higest_bid);\r\n        }\r\n        else{\r\n            revert('Amount too Low');\r\n        }\r\n    }\r\n    function GetRefund() public payable{ \r\n            uint amount =  Pending_returns[msg.sender];\r\n            uint contract_balance = address(this).balance;\r\n\r\n            require(msg.sender != AuctionOwner , 'Owner can not Initiate Refund');\r\n            require(amount > 0 , 'No Pending Returns');\r\n            require(amount <= contract_balance , 'Not enough Funds In Contract');\r\n            //require(msg.sender != highest_Bidder , 'Auction Winner Can not Claim Refund');\r\n\r\n                Pending_returns[msg.sender] = 0;\r\n                payable(msg.sender).transfer(amount);\r\n        }\r\n\r\n        /* Send the highest Bid to the Auction Owner*/\r\n    function TransferEthToOwner(address Auctioneer , uint itemID) public payable isOwner() {\r\n        itemID = itemID - 1;\r\n        uint256 contract_balance = address(this).balance ;\r\n        require(BidItems[Auctioneer][itemID].highest_bid <= contract_balance , 'Insufficient Amount in Contract');\r\n        payable(AuctionOwner).transfer(BidItems[Auctioneer][itemID].highest_bid);\r\n    }\r\n   function GetBidItem(address _auctioneer) public view returns(Item[] memory){ // return all Items of an address\r\n     return BidItems[_auctioneer];\r\n    }\r\n     \r\n    function GetOwner() external view returns(address) { // return address of auction owner\r\n        return AuctionOwner;\r\n    }\r\n\r\n    function GetRegistrationStatus(address _addr) external view returns(bool){ // return if address is registered\r\n        return RegisteredAuctioneers[_addr];\r\n    }\r\n\r\n    function GetAddressesCount() public view isOwner returns(uint)\r\n    {\r\n        return RegisteredAuctioneersAddresses.length;\r\n    }\r\n    function GetAddresses()public view returns(address[] memory){\r\n        return RegisteredAuctioneersAddresses;\r\n    }\r\n    function GetRegisteredAddresses(uint index) public view isOwner returns(address)\r\n    {\r\n        return RegisteredAuctioneersAddresses[index];\r\n    }\r\n    function ShowCurrentBid(address Auctioneer , uint itemID) external view  returns(address,uint){\r\n        return (BidItems[Auctioneer][itemID-1].highest_Bidder,BidItems[Auctioneer][itemID-1].highest_bid);\r\n    }\r\n\r\n    function getCurrentHighestBid(address Auctioneer , uint itemID) external view returns(address,uint){\r\n        return (BidItems[Auctioneer][itemID-1].highest_Bidder,BidItems[Auctioneer][itemID-1].highest_bid);\r\n    }\r\n\r\n    function getPrevHighestBid(address Auctioneer , uint itemID) external view returns(address,uint){\r\n        return (BidItems[Auctioneer][itemID-1].prev_higest_bidder,BidItems[Auctioneer][itemID-1].prev_higest_bid);\r\n    }\r\n    function getContractBalance() external view returns(uint){\r\n        return address(this).balance;\r\n    }\r\n}",
  "sourcePath": "D:\\BlockChain Projects\\Auction Dapp Msc Project\\auction-dapp\\src\\contracts\\Auction.sol",
  "compiler": {
    "name": "solc",
    "version": "0.8.11+commit.d7f03943.Emscripten.clang"
  },
  "schemaVersion": "3.4.4",
  "updatedAt": "2023-05-04T11:20:22.369Z",
  "networkType": "ethereum",
  "devdoc": {
    "kind": "dev",
    "methods": {},
    "version": 1
  },
  "userdoc": {
    "kind": "user",
    "methods": {},
    "version": 1
  }
}