{
  "contractName": "Auction",
  "abi": [
    {
      "inputs": [],
      "stateMutability": "nonpayable",
      "type": "constructor"
    },
    {
      "inputs": [
        {
          "internalType": "address",
          "name": "",
          "type": "address"
        },
        {
          "internalType": "uint256",
          "name": "",
          "type": "uint256"
        }
      ],
      "name": "BidItems",
      "outputs": [
        {
          "internalType": "uint256",
          "name": "itemID",
          "type": "uint256"
        },
        {
          "internalType": "address",
          "name": "auctioneer_addr",
          "type": "address"
        },
        {
          "internalType": "string",
          "name": "item_url",
          "type": "string"
        },
        {
          "internalType": "uint256",
          "name": "InitialPrice",
          "type": "uint256"
        },
        {
          "internalType": "uint256",
          "name": "currentBid",
          "type": "uint256"
        },
        {
          "internalType": "address",
          "name": "soldto_addr",
          "type": "address"
        }
      ],
      "stateMutability": "view",
      "type": "function",
      "constant": true
    },
    {
      "inputs": [
        {
          "internalType": "address",
          "name": "",
          "type": "address"
        }
      ],
      "name": "RegisteredAuctioneers",
      "outputs": [
        {
          "internalType": "bool",
          "name": "",
          "type": "bool"
        }
      ],
      "stateMutability": "view",
      "type": "function",
      "constant": true
    },
    {
      "inputs": [
        {
          "internalType": "uint256",
          "name": "",
          "type": "uint256"
        }
      ],
      "name": "RegisteredAuctioneersAddresses",
      "outputs": [
        {
          "internalType": "address",
          "name": "",
          "type": "address"
        }
      ],
      "stateMutability": "view",
      "type": "function",
      "constant": true
    },
    {
      "inputs": [],
      "name": "RegisterAsAuctioneer",
      "outputs": [],
      "stateMutability": "nonpayable",
      "type": "function"
    },
    {
      "inputs": [
        {
          "internalType": "string",
          "name": "_item_url",
          "type": "string"
        },
        {
          "internalType": "uint256",
          "name": "_InitialPrice",
          "type": "uint256"
        },
        {
          "internalType": "uint256",
          "name": "_currentBid",
          "type": "uint256"
        }
      ],
      "name": "RegisterBidItem",
      "outputs": [],
      "stateMutability": "nonpayable",
      "type": "function"
    },
    {
      "inputs": [
        {
          "internalType": "address",
          "name": "_auctioneer",
          "type": "address"
        }
      ],
      "name": "GetBidItem",
      "outputs": [
        {
          "components": [
            {
              "internalType": "uint256",
              "name": "itemID",
              "type": "uint256"
            },
            {
              "internalType": "address",
              "name": "auctioneer_addr",
              "type": "address"
            },
            {
              "internalType": "string",
              "name": "item_url",
              "type": "string"
            },
            {
              "internalType": "uint256",
              "name": "InitialPrice",
              "type": "uint256"
            },
            {
              "internalType": "uint256",
              "name": "currentBid",
              "type": "uint256"
            },
            {
              "internalType": "address",
              "name": "soldto_addr",
              "type": "address"
            }
          ],
          "internalType": "struct Auction.Item[]",
          "name": "",
          "type": "tuple[]"
        }
      ],
      "stateMutability": "view",
      "type": "function",
      "constant": true
    },
    {
      "inputs": [],
      "name": "GetOwner",
      "outputs": [
        {
          "internalType": "address",
          "name": "",
          "type": "address"
        }
      ],
      "stateMutability": "view",
      "type": "function",
      "constant": true
    },
    {
      "inputs": [
        {
          "internalType": "address",
          "name": "_addr",
          "type": "address"
        }
      ],
      "name": "GetRegistrationStatus",
      "outputs": [
        {
          "internalType": "bool",
          "name": "",
          "type": "bool"
        }
      ],
      "stateMutability": "view",
      "type": "function",
      "constant": true
    },
    {
      "inputs": [],
      "name": "GetAddressesCount",
      "outputs": [
        {
          "internalType": "uint256",
          "name": "",
          "type": "uint256"
        }
      ],
      "stateMutability": "view",
      "type": "function",
      "constant": true
    },
    {
      "inputs": [],
      "name": "GetAddresses",
      "outputs": [
        {
          "internalType": "address[]",
          "name": "",
          "type": "address[]"
        }
      ],
      "stateMutability": "view",
      "type": "function",
      "constant": true
    },
    {
      "inputs": [
        {
          "internalType": "uint256",
          "name": "index",
          "type": "uint256"
        }
      ],
      "name": "GetRegisteredAddresses",
      "outputs": [
        {
          "internalType": "address",
          "name": "",
          "type": "address"
        }
      ],
      "stateMutability": "view",
      "type": "function",
      "constant": true
    }
  ],
  "bytecode": "0x608060405234801561001057600080fd5b50336000806101000a81548173ffffffffffffffffffffffffffffffffffffffff021916908373ffffffffffffffffffffffffffffffffffffffff16021790555061165f806100606000396000f3fe608060405234801561001057600080fd5b50600436106100a95760003560e01c806348040eb01161007157806348040eb0146101665780638449b17414610184578063c932b935146101a0578063cc647207146101d0578063f026e44f14610200578063fe6078d814610235576100a9565b8063048a2856146100ae5780630ae50a39146100de5780632e45568a146100fc57806335158e6d1461012c5780634430ce6d14610136575b600080fd5b6100c860048036038101906100c39190610d03565b610253565b6040516100d59190610d71565b60405180910390f35b6100e6610292565b6040516100f39190610d71565b60405180910390f35b61011660048036038101906101119190610db8565b6102bb565b6040516101239190610e00565b60405180910390f35b6101346102db565b005b610150600480360381019061014b9190610db8565b61042b565b60405161015d9190610e00565b60405180910390f35b61016e610481565b60405161017b9190610e2a565b60405180910390f35b61019e60048036038101906101999190610f8b565b61051d565b005b6101ba60048036038101906101b59190610db8565b610796565b6040516101c791906111eb565b60405180910390f35b6101ea60048036038101906101e59190610d03565b610990565b6040516101f79190610d71565b60405180910390f35b61021a6004803603810190610215919061120d565b610a67565b60405161022c96959493929190611297565b60405180910390f35b61023d610b88565b60405161024a91906113ae565b60405180910390f35b6003818154811061026357600080fd5b906000526020600020016000915054906101000a900473ffffffffffffffffffffffffffffffffffffffff1681565b60008060009054906101000a900473ffffffffffffffffffffffffffffffffffffffff16905090565b60056020528060005260406000206000915054906101000a900460ff1681565b60001515600560003373ffffffffffffffffffffffffffffffffffffffff1673ffffffffffffffffffffffffffffffffffffffff16815260200190815260200160002060009054906101000a900460ff1615151461036e576040517f08c379a00000000000000000000000000000000000000000000000000000000081526004016103659061141c565b60405180910390fd5b6001600560003373ffffffffffffffffffffffffffffffffffffffff1673ffffffffffffffffffffffffffffffffffffffff16815260200190815260200160002060006101000a81548160ff0219169083151502179055506003339080600181540180825580915050600190039060005260206000200160009091909190916101000a81548173ffffffffffffffffffffffffffffffffffffffff021916908373ffffffffffffffffffffffffffffffffffffffff160217905550565b6000600560008373ffffffffffffffffffffffffffffffffffffffff1673ffffffffffffffffffffffffffffffffffffffff16815260200190815260200160002060009054906101000a900460ff169050919050565b60008060009054906101000a900473ffffffffffffffffffffffffffffffffffffffff1673ffffffffffffffffffffffffffffffffffffffff163373ffffffffffffffffffffffffffffffffffffffff1614610512576040517f08c379a000000000000000000000000000000000000000000000000000000000815260040161050990611488565b60405180910390fd5b600380549050905090565b60011515600560003373ffffffffffffffffffffffffffffffffffffffff1673ffffffffffffffffffffffffffffffffffffffff16815260200190815260200160002060009054906101000a900460ff161515146105b0576040517f08c379a00000000000000000000000000000000000000000000000000000000081526004016105a7906114f4565b60405180910390fd5b6000600460003373ffffffffffffffffffffffffffffffffffffffff1673ffffffffffffffffffffffffffffffffffffffff168152602001908152602001600020805490509050600460003373ffffffffffffffffffffffffffffffffffffffff1673ffffffffffffffffffffffffffffffffffffffff1681526020019081526020016000206040518060c0016040528060018461064e9190611543565b81526020013373ffffffffffffffffffffffffffffffffffffffff168152602001868152602001858152602001848152602001600073ffffffffffffffffffffffffffffffffffffffff1681525090806001815401808255809150506001900390600052602060002090600602016000909190919091506000820151816000015560208201518160010160006101000a81548173ffffffffffffffffffffffffffffffffffffffff021916908373ffffffffffffffffffffffffffffffffffffffff1602179055506040820151816002019080519060200190610732929190610c16565b50606082015181600301556080820151816004015560a08201518160050160006101000a81548173ffffffffffffffffffffffffffffffffffffffff021916908373ffffffffffffffffffffffffffffffffffffffff160217905550505050505050565b6060600460008373ffffffffffffffffffffffffffffffffffffffff1673ffffffffffffffffffffffffffffffffffffffff168152602001908152602001600020805480602002602001604051908101604052809291908181526020016000905b8282101561098557838290600052602060002090600602016040518060c0016040529081600082015481526020016001820160009054906101000a900473ffffffffffffffffffffffffffffffffffffffff1673ffffffffffffffffffffffffffffffffffffffff1673ffffffffffffffffffffffffffffffffffffffff16815260200160028201805461088a906115c8565b80601f01602080910402602001604051908101604052809291908181526020018280546108b6906115c8565b80156109035780601f106108d857610100808354040283529160200191610903565b820191906000526020600020905b8154815290600101906020018083116108e657829003601f168201915b5050505050815260200160038201548152602001600482015481526020016005820160009054906101000a900473ffffffffffffffffffffffffffffffffffffffff1673ffffffffffffffffffffffffffffffffffffffff1673ffffffffffffffffffffffffffffffffffffffff1681525050815260200190600101906107f7565b505050509050919050565b60008060009054906101000a900473ffffffffffffffffffffffffffffffffffffffff1673ffffffffffffffffffffffffffffffffffffffff163373ffffffffffffffffffffffffffffffffffffffff1614610a21576040517f08c379a0000000000000000000000000000000000000000000000000000000008152600401610a1890611488565b60405180910390fd5b60038281548110610a3557610a346115fa565b5b9060005260206000200160009054906101000a900473ffffffffffffffffffffffffffffffffffffffff169050919050565b60046020528160005260406000208181548110610a8357600080fd5b9060005260206000209060060201600091509150508060000154908060010160009054906101000a900473ffffffffffffffffffffffffffffffffffffffff1690806002018054610ad3906115c8565b80601f0160208091040260200160405190810160405280929190818152602001828054610aff906115c8565b8015610b4c5780601f10610b2157610100808354040283529160200191610b4c565b820191906000526020600020905b815481529060010190602001808311610b2f57829003601f168201915b5050505050908060030154908060040154908060050160009054906101000a900473ffffffffffffffffffffffffffffffffffffffff16905086565b60606003805480602002602001604051908101604052809291908181526020018280548015610c0c57602002820191906000526020600020905b8160009054906101000a900473ffffffffffffffffffffffffffffffffffffffff1673ffffffffffffffffffffffffffffffffffffffff1681526020019060010190808311610bc2575b5050505050905090565b828054610c22906115c8565b90600052602060002090601f016020900481019282610c445760008555610c8b565b82601f10610c5d57805160ff1916838001178555610c8b565b82800160010185558215610c8b579182015b82811115610c8a578251825591602001919060010190610c6f565b5b509050610c989190610c9c565b5090565b5b80821115610cb5576000816000905550600101610c9d565b5090565b6000604051905090565b600080fd5b600080fd5b6000819050919050565b610ce081610ccd565b8114610ceb57600080fd5b50565b600081359050610cfd81610cd7565b92915050565b600060208284031215610d1957610d18610cc3565b5b6000610d2784828501610cee565b91505092915050565b600073ffffffffffffffffffffffffffffffffffffffff82169050919050565b6000610d5b82610d30565b9050919050565b610d6b81610d50565b82525050565b6000602082019050610d866000830184610d62565b92915050565b610d9581610d50565b8114610da057600080fd5b50565b600081359050610db281610d8c565b92915050565b600060208284031215610dce57610dcd610cc3565b5b6000610ddc84828501610da3565b91505092915050565b60008115159050919050565b610dfa81610de5565b82525050565b6000602082019050610e156000830184610df1565b92915050565b610e2481610ccd565b82525050565b6000602082019050610e3f6000830184610e1b565b92915050565b600080fd5b600080fd5b6000601f19601f8301169050919050565b7f4e487b7100000000000000000000000000000000000000000000000000000000600052604160045260246000fd5b610e9882610e4f565b810181811067ffffffffffffffff82111715610eb757610eb6610e60565b5b80604052505050565b6000610eca610cb9565b9050610ed68282610e8f565b919050565b600067ffffffffffffffff821115610ef657610ef5610e60565b5b610eff82610e4f565b9050602081019050919050565b82818337600083830152505050565b6000610f2e610f2984610edb565b610ec0565b905082815260208101848484011115610f4a57610f49610e4a565b5b610f55848285610f0c565b509392505050565b600082601f830112610f7257610f71610e45565b5b8135610f82848260208601610f1b565b91505092915050565b600080600060608486031215610fa457610fa3610cc3565b5b600084013567ffffffffffffffff811115610fc257610fc1610cc8565b5b610fce86828701610f5d565b9350506020610fdf86828701610cee565b9250506040610ff086828701610cee565b9150509250925092565b600081519050919050565b600082825260208201905092915050565b6000819050602082019050919050565b61102f81610ccd565b82525050565b61103e81610d50565b82525050565b600081519050919050565b600082825260208201905092915050565b60005b8381101561107e578082015181840152602081019050611063565b8381111561108d576000848401525b50505050565b600061109e82611044565b6110a8818561104f565b93506110b8818560208601611060565b6110c181610e4f565b840191505092915050565b600060c0830160008301516110e46000860182611026565b5060208301516110f76020860182611035565b506040830151848203604086015261110f8282611093565b91505060608301516111246060860182611026565b5060808301516111376080860182611026565b5060a083015161114a60a0860182611035565b508091505092915050565b600061116183836110cc565b905092915050565b6000602082019050919050565b600061118182610ffa565b61118b8185611005565b93508360208202850161119d85611016565b8060005b858110156111d957848403895281516111ba8582611155565b94506111c583611169565b925060208a019950506001810190506111a1565b50829750879550505050505092915050565b600060208201905081810360008301526112058184611176565b905092915050565b6000806040838503121561122457611223610cc3565b5b600061123285828601610da3565b925050602061124385828601610cee565b9150509250929050565b600082825260208201905092915050565b600061126982611044565b611273818561124d565b9350611283818560208601611060565b61128c81610e4f565b840191505092915050565b600060c0820190506112ac6000830189610e1b565b6112b96020830188610d62565b81810360408301526112cb818761125e565b90506112da6060830186610e1b565b6112e76080830185610e1b565b6112f460a0830184610d62565b979650505050505050565b600081519050919050565b600082825260208201905092915050565b6000819050602082019050919050565b60006113378383611035565b60208301905092915050565b6000602082019050919050565b600061135b826112ff565b611365818561130a565b93506113708361131b565b8060005b838110156113a1578151611388888261132b565b975061139383611343565b925050600181019050611374565b5085935050505092915050565b600060208201905081810360008301526113c88184611350565b905092915050565b7f416c726561647920526567697374657265640000000000000000000000000000600082015250565b600061140660128361124d565b9150611411826113d0565b602082019050919050565b60006020820190508181036000830152611435816113f9565b9050919050565b7f4e6f7420746865204f776e657200000000000000000000000000000000000000600082015250565b6000611472600d8361124d565b915061147d8261143c565b602082019050919050565b600060208201905081810360008301526114a181611465565b9050919050565b7f4e6f7420526567697374657265642061732061756374696f6e65657200000000600082015250565b60006114de601c8361124d565b91506114e9826114a8565b602082019050919050565b6000602082019050818103600083015261150d816114d1565b9050919050565b7f4e487b7100000000000000000000000000000000000000000000000000000000600052601160045260246000fd5b600061154e82610ccd565b915061155983610ccd565b9250827fffffffffffffffffffffffffffffffffffffffffffffffffffffffffffffffff0382111561158e5761158d611514565b5b828201905092915050565b7f4e487b7100000000000000000000000000000000000000000000000000000000600052602260045260246000fd5b600060028204905060018216806115e057607f821691505b602082108114156115f4576115f3611599565b5b50919050565b7f4e487b7100000000000000000000000000000000000000000000000000000000600052603260045260246000fdfea26469706673582212200cbefd8c39a4f27dd480507c4996a6f5b3e2c35dcf0afcf88c213cffd8e252b964736f6c634300080b0033",
  "immutableReferences": {},
  "source": "// SPDX-License-Identifier: MIT\r\npragma solidity >=0.4.22 <0.9.0;\r\n\r\ncontract Auction\r\n{\r\n    struct Item\r\n    {\r\n       uint itemID;\r\n       address auctioneer_addr;\r\n       string item_url;\r\n       uint InitialPrice;\r\n       uint currentBid;\r\n       address soldto_addr;\r\n    }\r\n\r\n    address AuctionOwner; // address of auction owner\r\n    mapping(address=>uint) bidders; // address of biders which map to the amount of bid placed\r\n    mapping(address=>uint) Pending_returns; // address of all bidders that were outbidded and are eligible for a return amount\r\n    \r\n address[] public RegisteredAuctioneersAddresses;\r\n    mapping(address=>Item[]) public BidItems; // store BidItems\r\n    mapping(address=>bool) public RegisteredAuctioneers; // register as an auctioneer\r\n    \r\n    modifier isAlreadyRegistered(){ // check if an address is already registered\r\n       \r\n       require(RegisteredAuctioneers[msg.sender] == false , 'Already Registered');\r\n       _;\r\n    }\r\n       modifier isRegistered(){ // check if an address is registered as auctioneer\r\n       \r\n       require(RegisteredAuctioneers[msg.sender] == true , 'Not Registered as auctioneer');\r\n       _;\r\n    }\r\n        modifier isOwner()\r\n    {\r\n        require(msg.sender == AuctionOwner, 'Not the Owner');\r\n        _;\r\n    }\r\n    constructor()\r\n    {\r\n        AuctionOwner = msg.sender;\r\n    }\r\n\r\n   \r\n    function RegisterAsAuctioneer()public isAlreadyRegistered { // Register as an auctioneer\r\n        RegisteredAuctioneers[msg.sender] = true;\r\n        RegisteredAuctioneersAddresses.push(msg.sender);\r\n    }\r\n\r\n    // Registed a Bid Item\r\n    function RegisterBidItem(string memory _item_url,uint _InitialPrice,uint _currentBid) public isRegistered {\r\n        \r\n        uint ItemNumber = BidItems[msg.sender].length; // get  length of current items of the auctioneer\r\n        BidItems[msg.sender].push(Item(ItemNumber+1,msg.sender,_item_url,_InitialPrice,_currentBid,address(0))); // set item \r\n\r\n    }\r\n\r\n   function GetBidItem(address _auctioneer) public view returns(Item[] memory){ // return all Items of an address\r\n     return BidItems[_auctioneer];\r\n    }\r\n     \r\n    function GetOwner() external view returns(address) { // return address of auction owner\r\n        return AuctionOwner;\r\n    }\r\n\r\n    function GetRegistrationStatus(address _addr) external view returns(bool){ // return if address is registered\r\n        return RegisteredAuctioneers[_addr];\r\n    }\r\n\r\n    function GetAddressesCount() public view isOwner returns(uint)\r\n    {\r\n        return RegisteredAuctioneersAddresses.length;\r\n    }\r\n    function GetAddresses()public view returns(address[] memory){\r\n        return RegisteredAuctioneersAddresses;\r\n    }\r\n    function GetRegisteredAddresses(uint index) public view isOwner returns(address)\r\n    {\r\n        return RegisteredAuctioneersAddresses[index];\r\n    }\r\n}",
  "sourcePath": "D:\\BlockChain Projects\\Auction Dapp Msc Project\\auction-dapp\\src\\contracts\\Auction.sol",
  "compiler": {
    "name": "solc",
    "version": "0.8.11+commit.d7f03943.Emscripten.clang"
  },
  "schemaVersion": "3.4.4",
  "updatedAt": "2023-03-18T11:16:26.179Z",
  "networkType": "ethereum",
  "devdoc": {
    "kind": "dev",
    "methods": {},
    "version": 1
  },
  "userdoc": {
    "kind": "user",
    "methods": {},
    "version": 1
  }
}