{
  "contractName": "Auction",
  "abi": [
    {
      "inputs": [],
      "stateMutability": "nonpayable",
      "type": "constructor"
    },
    {
      "inputs": [],
      "name": "GetVal",
      "outputs": [
        {
          "internalType": "uint256",
          "name": "",
          "type": "uint256"
        }
      ],
      "stateMutability": "view",
      "type": "function",
      "constant": true
    }
  ],
  "bytecode": "0x608060405234801561001057600080fd5b50606460008190555060b6806100276000396000f3fe6080604052348015600f57600080fd5b506004361060285760003560e01c8063e4624d4514602d575b600080fd5b60336047565b604051603e91906067565b60405180910390f35b60008054905090565b6000819050919050565b6061816050565b82525050565b6000602082019050607a6000830184605a565b9291505056fea2646970667358221220ec1b86a9b851f51f24de5be83d41d1bb662d019b0ec060ebdc3c0d06938f9e2264736f6c634300080b0033",
  "immutableReferences": {},
  "source": "// SPDX-License-Identifier: MIT\r\npragma solidity >=0.4.22 <0.9.0;\r\n\r\ncontract Auction\r\n{\r\n    uint val;\r\n    constructor()\r\n    {\r\n        val = 100;\r\n    }\r\n\r\n    function GetVal() external view returns(uint)\r\n    {\r\n        return val;\r\n    }\r\n}",
  "sourcePath": "D:\\BlockChain Projects\\Auction Dapp Msc Project\\auction-dapp\\src\\contracts\\Auction.sol",
  "compiler": {
    "name": "solc",
    "version": "0.8.11+commit.d7f03943.Emscripten.clang"
  },
  "schemaVersion": "3.4.4",
  "updatedAt": "2023-01-30T02:24:23.955Z",
  "networkType": "ethereum",
  "devdoc": {
    "kind": "dev",
    "methods": {},
    "version": 1
  },
  "userdoc": {
    "kind": "user",
    "methods": {},
    "version": 1
  }
}