{
  "contractName": "Auction",
  "abi": [
    {
      "inputs": [],
      "stateMutability": "nonpayable",
      "type": "constructor"
    },
    {
      "inputs": [
        {
          "internalType": "address",
          "name": "",
          "type": "address"
        },
        {
          "internalType": "uint256",
          "name": "",
          "type": "uint256"
        }
      ],
      "name": "BidItems",
      "outputs": [
        {
          "internalType": "uint256",
          "name": "itemID",
          "type": "uint256"
        },
        {
          "internalType": "address",
          "name": "auctioneer_addr",
          "type": "address"
        },
        {
          "internalType": "string",
          "name": "item_url",
          "type": "string"
        },
        {
          "internalType": "uint256",
          "name": "InitialPrice",
          "type": "uint256"
        },
        {
          "internalType": "uint256",
          "name": "currentBid",
          "type": "uint256"
        },
        {
          "internalType": "address",
          "name": "soldto_addr",
          "type": "address"
        },
        {
          "internalType": "uint256",
          "name": "highest_bid",
          "type": "uint256"
        },
        {
          "internalType": "address",
          "name": "highest_Bidder",
          "type": "address"
        },
        {
          "internalType": "uint256",
          "name": "prev_higest_bid",
          "type": "uint256"
        },
        {
          "internalType": "address",
          "name": "prev_higest_bidder",
          "type": "address"
        }
      ],
      "stateMutability": "view",
      "type": "function",
      "constant": true
    },
    {
      "inputs": [
        {
          "internalType": "address",
          "name": "",
          "type": "address"
        }
      ],
      "name": "RegisteredAuctioneers",
      "outputs": [
        {
          "internalType": "bool",
          "name": "",
          "type": "bool"
        }
      ],
      "stateMutability": "view",
      "type": "function",
      "constant": true
    },
    {
      "inputs": [
        {
          "internalType": "uint256",
          "name": "",
          "type": "uint256"
        }
      ],
      "name": "RegisteredAuctioneersAddresses",
      "outputs": [
        {
          "internalType": "address",
          "name": "",
          "type": "address"
        }
      ],
      "stateMutability": "view",
      "type": "function",
      "constant": true
    },
    {
      "inputs": [],
      "name": "RegisterAsAuctioneer",
      "outputs": [],
      "stateMutability": "nonpayable",
      "type": "function"
    },
    {
      "inputs": [
        {
          "internalType": "string",
          "name": "_item_url",
          "type": "string"
        },
        {
          "internalType": "uint256",
          "name": "_InitialPrice",
          "type": "uint256"
        },
        {
          "internalType": "uint256",
          "name": "_currentBid",
          "type": "uint256"
        }
      ],
      "name": "RegisterBidItem",
      "outputs": [],
      "stateMutability": "nonpayable",
      "type": "function"
    },
    {
      "inputs": [
        {
          "internalType": "address",
          "name": "_auctioneer",
          "type": "address"
        }
      ],
      "name": "GetBidItem",
      "outputs": [
        {
          "components": [
            {
              "internalType": "uint256",
              "name": "itemID",
              "type": "uint256"
            },
            {
              "internalType": "address",
              "name": "auctioneer_addr",
              "type": "address"
            },
            {
              "internalType": "string",
              "name": "item_url",
              "type": "string"
            },
            {
              "internalType": "uint256",
              "name": "InitialPrice",
              "type": "uint256"
            },
            {
              "internalType": "uint256",
              "name": "currentBid",
              "type": "uint256"
            },
            {
              "internalType": "address",
              "name": "soldto_addr",
              "type": "address"
            },
            {
              "internalType": "uint256",
              "name": "highest_bid",
              "type": "uint256"
            },
            {
              "internalType": "address",
              "name": "highest_Bidder",
              "type": "address"
            },
            {
              "internalType": "uint256",
              "name": "prev_higest_bid",
              "type": "uint256"
            },
            {
              "internalType": "address",
              "name": "prev_higest_bidder",
              "type": "address"
            }
          ],
          "internalType": "struct Auction.Item[]",
          "name": "",
          "type": "tuple[]"
        }
      ],
      "stateMutability": "view",
      "type": "function",
      "constant": true
    },
    {
      "inputs": [],
      "name": "GetOwner",
      "outputs": [
        {
          "internalType": "address",
          "name": "",
          "type": "address"
        }
      ],
      "stateMutability": "view",
      "type": "function",
      "constant": true
    },
    {
      "inputs": [
        {
          "internalType": "address",
          "name": "_addr",
          "type": "address"
        }
      ],
      "name": "GetRegistrationStatus",
      "outputs": [
        {
          "internalType": "bool",
          "name": "",
          "type": "bool"
        }
      ],
      "stateMutability": "view",
      "type": "function",
      "constant": true
    },
    {
      "inputs": [],
      "name": "GetAddressesCount",
      "outputs": [
        {
          "internalType": "uint256",
          "name": "",
          "type": "uint256"
        }
      ],
      "stateMutability": "view",
      "type": "function",
      "constant": true
    },
    {
      "inputs": [],
      "name": "GetAddresses",
      "outputs": [
        {
          "internalType": "address[]",
          "name": "",
          "type": "address[]"
        }
      ],
      "stateMutability": "view",
      "type": "function",
      "constant": true
    },
    {
      "inputs": [
        {
          "internalType": "uint256",
          "name": "index",
          "type": "uint256"
        }
      ],
      "name": "GetRegisteredAddresses",
      "outputs": [
        {
          "internalType": "address",
          "name": "",
          "type": "address"
        }
      ],
      "stateMutability": "view",
      "type": "function",
      "constant": true
    }
  ],
  "bytecode": "0x608060405234801561001057600080fd5b50336000806101000a81548173ffffffffffffffffffffffffffffffffffffffff021916908373ffffffffffffffffffffffffffffffffffffffff1602179055506118f5806100606000396000f3fe608060405234801561001057600080fd5b50600436106100a95760003560e01c806348040eb01161007157806348040eb0146101665780638449b17414610184578063c932b935146101a0578063cc647207146101d0578063f026e44f14610200578063fe6078d814610239576100a9565b8063048a2856146100ae5780630ae50a39146100de5780632e45568a146100fc57806335158e6d1461012c5780634430ce6d14610136575b600080fd5b6100c860048036038101906100c39190610f0d565b610257565b6040516100d59190610f7b565b60405180910390f35b6100e6610296565b6040516100f39190610f7b565b60405180910390f35b61011660048036038101906101119190610fc2565b6102bf565b604051610123919061100a565b60405180910390f35b6101346102df565b005b610150600480360381019061014b9190610fc2565b61042f565b60405161015d919061100a565b60405180910390f35b61016e610485565b60405161017b9190611034565b60405180910390f35b61019e60048036038101906101999190611195565b610521565b005b6101ba60048036038101906101b59190610fc2565b610887565b6040516101c79190611446565b60405180910390f35b6101ea60048036038101906101e59190610f0d565b610b42565b6040516101f79190610f7b565b60405180910390f35b61021a60048036038101906102159190611468565b610c19565b6040516102309a999897969594939291906114f2565b60405180910390f35b610241610d92565b60405161024e9190611644565b60405180910390f35b6003818154811061026757600080fd5b906000526020600020016000915054906101000a900473ffffffffffffffffffffffffffffffffffffffff1681565b60008060009054906101000a900473ffffffffffffffffffffffffffffffffffffffff16905090565b60056020528060005260406000206000915054906101000a900460ff1681565b60001515600560003373ffffffffffffffffffffffffffffffffffffffff1673ffffffffffffffffffffffffffffffffffffffff16815260200190815260200160002060009054906101000a900460ff16151514610372576040517f08c379a0000000000000000000000000000000000000000000000000000000008152600401610369906116b2565b60405180910390fd5b6001600560003373ffffffffffffffffffffffffffffffffffffffff1673ffffffffffffffffffffffffffffffffffffffff16815260200190815260200160002060006101000a81548160ff0219169083151502179055506003339080600181540180825580915050600190039060005260206000200160009091909190916101000a81548173ffffffffffffffffffffffffffffffffffffffff021916908373ffffffffffffffffffffffffffffffffffffffff160217905550565b6000600560008373ffffffffffffffffffffffffffffffffffffffff1673ffffffffffffffffffffffffffffffffffffffff16815260200190815260200160002060009054906101000a900460ff169050919050565b60008060009054906101000a900473ffffffffffffffffffffffffffffffffffffffff1673ffffffffffffffffffffffffffffffffffffffff163373ffffffffffffffffffffffffffffffffffffffff1614610516576040517f08c379a000000000000000000000000000000000000000000000000000000000815260040161050d9061171e565b60405180910390fd5b600380549050905090565b60011515600560003373ffffffffffffffffffffffffffffffffffffffff1673ffffffffffffffffffffffffffffffffffffffff16815260200190815260200160002060009054906101000a900460ff161515146105b4576040517f08c379a00000000000000000000000000000000000000000000000000000000081526004016105ab9061178a565b60405180910390fd5b6000600460003373ffffffffffffffffffffffffffffffffffffffff1673ffffffffffffffffffffffffffffffffffffffff168152602001908152602001600020805490509050600460003373ffffffffffffffffffffffffffffffffffffffff1673ffffffffffffffffffffffffffffffffffffffff16815260200190815260200160002060405180610140016040528060018461065391906117d9565b81526020013373ffffffffffffffffffffffffffffffffffffffff168152602001868152602001858152602001848152602001600073ffffffffffffffffffffffffffffffffffffffff16815260200160008152602001600073ffffffffffffffffffffffffffffffffffffffff16815260200160008152602001600073ffffffffffffffffffffffffffffffffffffffff1681525090806001815401808255809150506001900390600052602060002090600a02016000909190919091506000820151816000015560208201518160010160006101000a81548173ffffffffffffffffffffffffffffffffffffffff021916908373ffffffffffffffffffffffffffffffffffffffff160217905550604082015181600201908051906020019061077f929190610e20565b50606082015181600301556080820151816004015560a08201518160050160006101000a81548173ffffffffffffffffffffffffffffffffffffffff021916908373ffffffffffffffffffffffffffffffffffffffff16021790555060c0820151816006015560e08201518160070160006101000a81548173ffffffffffffffffffffffffffffffffffffffff021916908373ffffffffffffffffffffffffffffffffffffffff16021790555061010082015181600801556101208201518160090160006101000a81548173ffffffffffffffffffffffffffffffffffffffff021916908373ffffffffffffffffffffffffffffffffffffffff160217905550505050505050565b6060600460008373ffffffffffffffffffffffffffffffffffffffff1673ffffffffffffffffffffffffffffffffffffffff168152602001908152602001600020805480602002602001604051908101604052809291908181526020016000905b82821015610b3757838290600052602060002090600a020160405180610140016040529081600082015481526020016001820160009054906101000a900473ffffffffffffffffffffffffffffffffffffffff1673ffffffffffffffffffffffffffffffffffffffff1673ffffffffffffffffffffffffffffffffffffffff16815260200160028201805461097c9061185e565b80601f01602080910402602001604051908101604052809291908181526020018280546109a89061185e565b80156109f55780601f106109ca576101008083540402835291602001916109f5565b820191906000526020600020905b8154815290600101906020018083116109d857829003601f168201915b5050505050815260200160038201548152602001600482015481526020016005820160009054906101000a900473ffffffffffffffffffffffffffffffffffffffff1673ffffffffffffffffffffffffffffffffffffffff1673ffffffffffffffffffffffffffffffffffffffff168152602001600682015481526020016007820160009054906101000a900473ffffffffffffffffffffffffffffffffffffffff1673ffffffffffffffffffffffffffffffffffffffff1673ffffffffffffffffffffffffffffffffffffffff168152602001600882015481526020016009820160009054906101000a900473ffffffffffffffffffffffffffffffffffffffff1673ffffffffffffffffffffffffffffffffffffffff1673ffffffffffffffffffffffffffffffffffffffff1681525050815260200190600101906108e8565b505050509050919050565b60008060009054906101000a900473ffffffffffffffffffffffffffffffffffffffff1673ffffffffffffffffffffffffffffffffffffffff163373ffffffffffffffffffffffffffffffffffffffff1614610bd3576040517f08c379a0000000000000000000000000000000000000000000000000000000008152600401610bca9061171e565b60405180910390fd5b60038281548110610be757610be6611890565b5b9060005260206000200160009054906101000a900473ffffffffffffffffffffffffffffffffffffffff169050919050565b60046020528160005260406000208181548110610c3557600080fd5b90600052602060002090600a0201600091509150508060000154908060010160009054906101000a900473ffffffffffffffffffffffffffffffffffffffff1690806002018054610c859061185e565b80601f0160208091040260200160405190810160405280929190818152602001828054610cb19061185e565b8015610cfe5780601f10610cd357610100808354040283529160200191610cfe565b820191906000526020600020905b815481529060010190602001808311610ce157829003601f168201915b5050505050908060030154908060040154908060050160009054906101000a900473ffffffffffffffffffffffffffffffffffffffff16908060060154908060070160009054906101000a900473ffffffffffffffffffffffffffffffffffffffff16908060080154908060090160009054906101000a900473ffffffffffffffffffffffffffffffffffffffff1690508a565b60606003805480602002602001604051908101604052809291908181526020018280548015610e1657602002820191906000526020600020905b8160009054906101000a900473ffffffffffffffffffffffffffffffffffffffff1673ffffffffffffffffffffffffffffffffffffffff1681526020019060010190808311610dcc575b5050505050905090565b828054610e2c9061185e565b90600052602060002090601f016020900481019282610e4e5760008555610e95565b82601f10610e6757805160ff1916838001178555610e95565b82800160010185558215610e95579182015b82811115610e94578251825591602001919060010190610e79565b5b509050610ea29190610ea6565b5090565b5b80821115610ebf576000816000905550600101610ea7565b5090565b6000604051905090565b600080fd5b600080fd5b6000819050919050565b610eea81610ed7565b8114610ef557600080fd5b50565b600081359050610f0781610ee1565b92915050565b600060208284031215610f2357610f22610ecd565b5b6000610f3184828501610ef8565b91505092915050565b600073ffffffffffffffffffffffffffffffffffffffff82169050919050565b6000610f6582610f3a565b9050919050565b610f7581610f5a565b82525050565b6000602082019050610f906000830184610f6c565b92915050565b610f9f81610f5a565b8114610faa57600080fd5b50565b600081359050610fbc81610f96565b92915050565b600060208284031215610fd857610fd7610ecd565b5b6000610fe684828501610fad565b91505092915050565b60008115159050919050565b61100481610fef565b82525050565b600060208201905061101f6000830184610ffb565b92915050565b61102e81610ed7565b82525050565b60006020820190506110496000830184611025565b92915050565b600080fd5b600080fd5b6000601f19601f8301169050919050565b7f4e487b7100000000000000000000000000000000000000000000000000000000600052604160045260246000fd5b6110a282611059565b810181811067ffffffffffffffff821117156110c1576110c061106a565b5b80604052505050565b60006110d4610ec3565b90506110e08282611099565b919050565b600067ffffffffffffffff821115611100576110ff61106a565b5b61110982611059565b9050602081019050919050565b82818337600083830152505050565b6000611138611133846110e5565b6110ca565b90508281526020810184848401111561115457611153611054565b5b61115f848285611116565b509392505050565b600082601f83011261117c5761117b61104f565b5b813561118c848260208601611125565b91505092915050565b6000806000606084860312156111ae576111ad610ecd565b5b600084013567ffffffffffffffff8111156111cc576111cb610ed2565b5b6111d886828701611167565b93505060206111e986828701610ef8565b92505060406111fa86828701610ef8565b9150509250925092565b600081519050919050565b600082825260208201905092915050565b6000819050602082019050919050565b61123981610ed7565b82525050565b61124881610f5a565b82525050565b600081519050919050565b600082825260208201905092915050565b60005b8381101561128857808201518184015260208101905061126d565b83811115611297576000848401525b50505050565b60006112a88261124e565b6112b28185611259565b93506112c281856020860161126a565b6112cb81611059565b840191505092915050565b6000610140830160008301516112ef6000860182611230565b506020830151611302602086018261123f565b506040830151848203604086015261131a828261129d565b915050606083015161132f6060860182611230565b5060808301516113426080860182611230565b5060a083015161135560a086018261123f565b5060c083015161136860c0860182611230565b5060e083015161137b60e086018261123f565b50610100830151611390610100860182611230565b506101208301516113a561012086018261123f565b508091505092915050565b60006113bc83836112d6565b905092915050565b6000602082019050919050565b60006113dc82611204565b6113e6818561120f565b9350836020820285016113f885611220565b8060005b85811015611434578484038952815161141585826113b0565b9450611420836113c4565b925060208a019950506001810190506113fc565b50829750879550505050505092915050565b6000602082019050818103600083015261146081846113d1565b905092915050565b6000806040838503121561147f5761147e610ecd565b5b600061148d85828601610fad565b925050602061149e85828601610ef8565b9150509250929050565b600082825260208201905092915050565b60006114c48261124e565b6114ce81856114a8565b93506114de81856020860161126a565b6114e781611059565b840191505092915050565b600061014082019050611508600083018d611025565b611515602083018c610f6c565b8181036040830152611527818b6114b9565b9050611536606083018a611025565b6115436080830189611025565b61155060a0830188610f6c565b61155d60c0830187611025565b61156a60e0830186610f6c565b611578610100830185611025565b611586610120830184610f6c565b9b9a5050505050505050505050565b600081519050919050565b600082825260208201905092915050565b6000819050602082019050919050565b60006115cd838361123f565b60208301905092915050565b6000602082019050919050565b60006115f182611595565b6115fb81856115a0565b9350611606836115b1565b8060005b8381101561163757815161161e88826115c1565b9750611629836115d9565b92505060018101905061160a565b5085935050505092915050565b6000602082019050818103600083015261165e81846115e6565b905092915050565b7f416c726561647920526567697374657265640000000000000000000000000000600082015250565b600061169c6012836114a8565b91506116a782611666565b602082019050919050565b600060208201905081810360008301526116cb8161168f565b9050919050565b7f4e6f7420746865204f776e657200000000000000000000000000000000000000600082015250565b6000611708600d836114a8565b9150611713826116d2565b602082019050919050565b60006020820190508181036000830152611737816116fb565b9050919050565b7f4e6f7420526567697374657265642061732061756374696f6e65657200000000600082015250565b6000611774601c836114a8565b915061177f8261173e565b602082019050919050565b600060208201905081810360008301526117a381611767565b9050919050565b7f4e487b7100000000000000000000000000000000000000000000000000000000600052601160045260246000fd5b60006117e482610ed7565b91506117ef83610ed7565b9250827fffffffffffffffffffffffffffffffffffffffffffffffffffffffffffffffff03821115611824576118236117aa565b5b828201905092915050565b7f4e487b7100000000000000000000000000000000000000000000000000000000600052602260045260246000fd5b6000600282049050600182168061187657607f821691505b6020821081141561188a5761188961182f565b5b50919050565b7f4e487b7100000000000000000000000000000000000000000000000000000000600052603260045260246000fdfea264697066735822122073b2a97ccf17da9a1c53dd2bf5927d69ceb6a1b2b7f9ccc9694bc1faad802ca064736f6c634300080b0033",
  "immutableReferences": {},
  "source": "// SPDX-License-Identifier: MIT\r\npragma solidity >=0.4.22 <0.9.0;\r\n\r\ncontract Auction\r\n{\r\n    struct Item\r\n    {\r\n       uint itemID;\r\n       address auctioneer_addr;\r\n       string item_url;\r\n       uint InitialPrice;\r\n       uint currentBid;\r\n       address soldto_addr;\r\n       uint highest_bid;\r\n       address highest_Bidder;\r\n       uint prev_higest_bid;\r\n       address prev_higest_bidder;\r\n    }\r\n\r\n    address AuctionOwner; // address of auction owner\r\n    mapping(address=>uint) bidders; // address of biders which map to the amount of bid placed\r\n    mapping(address=>uint) Pending_returns; // address of all bidders that were outbidded and are eligible for a return amount\r\n    \r\n address[] public RegisteredAuctioneersAddresses;\r\n    mapping(address=>Item[]) public BidItems; // store BidItems\r\n    mapping(address=>bool) public RegisteredAuctioneers; // register as an auctioneer\r\n    \r\n    modifier isAlreadyRegistered(){ // check if an address is already registered\r\n       \r\n       require(RegisteredAuctioneers[msg.sender] == false , 'Already Registered');\r\n       _;\r\n    }\r\n       modifier isRegistered(){ // check if an address is registered as auctioneer\r\n       \r\n       require(RegisteredAuctioneers[msg.sender] == true , 'Not Registered as auctioneer');\r\n       _;\r\n    }\r\n        modifier isOwner()\r\n    {\r\n        require(msg.sender == AuctionOwner, 'Not the Owner');\r\n        _;\r\n    }\r\n    constructor()\r\n    {\r\n        AuctionOwner = msg.sender;\r\n    }\r\n\r\n   \r\n    function RegisterAsAuctioneer()public isAlreadyRegistered { // Register as an auctioneer\r\n        RegisteredAuctioneers[msg.sender] = true;\r\n        RegisteredAuctioneersAddresses.push(msg.sender);\r\n    }\r\n\r\n    // Registed a Bid Item\r\n    function RegisterBidItem(string memory _item_url,uint _InitialPrice,uint _currentBid) public isRegistered {\r\n        \r\n        uint ItemNumber = BidItems[msg.sender].length; // get  length of current items of the auctioneer\r\n        BidItems[msg.sender].push(Item(ItemNumber+1,msg.sender,_item_url,_InitialPrice,_currentBid,address(0),0,address(0),0,address(0))); // set item \r\n\r\n    }\r\n\r\n   function GetBidItem(address _auctioneer) public view returns(Item[] memory){ // return all Items of an address\r\n     return BidItems[_auctioneer];\r\n    }\r\n     \r\n    function GetOwner() external view returns(address) { // return address of auction owner\r\n        return AuctionOwner;\r\n    }\r\n\r\n    function GetRegistrationStatus(address _addr) external view returns(bool){ // return if address is registered\r\n        return RegisteredAuctioneers[_addr];\r\n    }\r\n\r\n    function GetAddressesCount() public view isOwner returns(uint)\r\n    {\r\n        return RegisteredAuctioneersAddresses.length;\r\n    }\r\n    function GetAddresses()public view returns(address[] memory){\r\n        return RegisteredAuctioneersAddresses;\r\n    }\r\n    function GetRegisteredAddresses(uint index) public view isOwner returns(address)\r\n    {\r\n        return RegisteredAuctioneersAddresses[index];\r\n    }\r\n}",
  "sourcePath": "D:\\BlockChain Projects\\Auction Dapp Msc Project\\auction-dapp\\src\\contracts\\Auction.sol",
  "compiler": {
    "name": "solc",
    "version": "0.8.11+commit.d7f03943.Emscripten.clang"
  },
  "schemaVersion": "3.4.4",
  "updatedAt": "2023-03-18T19:06:16.068Z",
  "networkType": "ethereum",
  "devdoc": {
    "kind": "dev",
    "methods": {},
    "version": 1
  },
  "userdoc": {
    "kind": "user",
    "methods": {},
    "version": 1
  }
}