{
  "contractName": "Auction",
  "abi": [
    {
      "inputs": [],
      "stateMutability": "nonpayable",
      "type": "constructor"
    },
    {
      "inputs": [
        {
          "internalType": "address",
          "name": "",
          "type": "address"
        },
        {
          "internalType": "uint256",
          "name": "",
          "type": "uint256"
        }
      ],
      "name": "BidItems",
      "outputs": [
        {
          "internalType": "uint256",
          "name": "itemID",
          "type": "uint256"
        },
        {
          "internalType": "address",
          "name": "auctioneer_addr",
          "type": "address"
        },
        {
          "internalType": "string",
          "name": "item_url",
          "type": "string"
        },
        {
          "internalType": "uint256",
          "name": "InitialPrice",
          "type": "uint256"
        },
        {
          "internalType": "uint256",
          "name": "currentBid",
          "type": "uint256"
        },
        {
          "internalType": "address",
          "name": "soldto_addr",
          "type": "address"
        }
      ],
      "stateMutability": "view",
      "type": "function",
      "constant": true
    },
    {
      "inputs": [
        {
          "internalType": "address",
          "name": "",
          "type": "address"
        }
      ],
      "name": "RegisteredAuctioneers",
      "outputs": [
        {
          "internalType": "bool",
          "name": "",
          "type": "bool"
        }
      ],
      "stateMutability": "view",
      "type": "function",
      "constant": true
    },
    {
      "inputs": [],
      "name": "RegisterAsAuctioneer",
      "outputs": [],
      "stateMutability": "nonpayable",
      "type": "function"
    },
    {
      "inputs": [
        {
          "internalType": "string",
          "name": "_item_url",
          "type": "string"
        },
        {
          "internalType": "uint256",
          "name": "_InitialPrice",
          "type": "uint256"
        },
        {
          "internalType": "uint256",
          "name": "_currentBid",
          "type": "uint256"
        }
      ],
      "name": "RegisterBidItem",
      "outputs": [],
      "stateMutability": "nonpayable",
      "type": "function"
    },
    {
      "inputs": [
        {
          "internalType": "address",
          "name": "_auctioneer",
          "type": "address"
        }
      ],
      "name": "GetBidItem",
      "outputs": [
        {
          "components": [
            {
              "internalType": "uint256",
              "name": "itemID",
              "type": "uint256"
            },
            {
              "internalType": "address",
              "name": "auctioneer_addr",
              "type": "address"
            },
            {
              "internalType": "string",
              "name": "item_url",
              "type": "string"
            },
            {
              "internalType": "uint256",
              "name": "InitialPrice",
              "type": "uint256"
            },
            {
              "internalType": "uint256",
              "name": "currentBid",
              "type": "uint256"
            },
            {
              "internalType": "address",
              "name": "soldto_addr",
              "type": "address"
            }
          ],
          "internalType": "struct Auction.Item[]",
          "name": "",
          "type": "tuple[]"
        }
      ],
      "stateMutability": "view",
      "type": "function",
      "constant": true
    },
    {
      "inputs": [],
      "name": "GetOwner",
      "outputs": [
        {
          "internalType": "address",
          "name": "",
          "type": "address"
        }
      ],
      "stateMutability": "view",
      "type": "function",
      "constant": true
    },
    {
      "inputs": [
        {
          "internalType": "address",
          "name": "_addr",
          "type": "address"
        }
      ],
      "name": "GetRegistrationStatus",
      "outputs": [
        {
          "internalType": "bool",
          "name": "",
          "type": "bool"
        }
      ],
      "stateMutability": "view",
      "type": "function",
      "constant": true
    }
  ],
  "bytecode": "0x608060405234801561001057600080fd5b50336000806101000a81548173ffffffffffffffffffffffffffffffffffffffff021916908373ffffffffffffffffffffffffffffffffffffffff160217905550611140806100606000396000f3fe608060405234801561001057600080fd5b506004361061007d5760003560e01c80634430ce6d1161005b5780634430ce6d146100da5780638449b1741461010a578063c932b93514610126578063f026e44f146101565761007d565b80630ae50a39146100825780632e45568a146100a057806335158e6d146100d0575b600080fd5b61008a61018b565b604051610097919061098f565b60405180910390f35b6100ba60048036038101906100b591906109ea565b6101b4565b6040516100c79190610a32565b60405180910390f35b6100d86101d4565b005b6100f460048036038101906100ef91906109ea565b6102c1565b6040516101019190610a32565b60405180910390f35b610124600480360381019061011f9190610bc9565b610317565b005b610140600480360381019061013b91906109ea565b610590565b60405161014d9190610e29565b60405180910390f35b610170600480360381019061016b9190610e4b565b61078a565b60405161018296959493929190610ee4565b60405180910390f35b60008060009054906101000a900473ffffffffffffffffffffffffffffffffffffffff16905090565b60046020528060005260406000206000915054906101000a900460ff1681565b60001515600460003373ffffffffffffffffffffffffffffffffffffffff1673ffffffffffffffffffffffffffffffffffffffff16815260200190815260200160002060009054906101000a900460ff16151514610267576040517f08c379a000000000000000000000000000000000000000000000000000000000815260040161025e90610f98565b60405180910390fd5b6001600460003373ffffffffffffffffffffffffffffffffffffffff1673ffffffffffffffffffffffffffffffffffffffff16815260200190815260200160002060006101000a81548160ff021916908315150217905550565b6000600460008373ffffffffffffffffffffffffffffffffffffffff1673ffffffffffffffffffffffffffffffffffffffff16815260200190815260200160002060009054906101000a900460ff169050919050565b60011515600460003373ffffffffffffffffffffffffffffffffffffffff1673ffffffffffffffffffffffffffffffffffffffff16815260200190815260200160002060009054906101000a900460ff161515146103aa576040517f08c379a00000000000000000000000000000000000000000000000000000000081526004016103a190611004565b60405180910390fd5b6000600360003373ffffffffffffffffffffffffffffffffffffffff1673ffffffffffffffffffffffffffffffffffffffff168152602001908152602001600020805490509050600360003373ffffffffffffffffffffffffffffffffffffffff1673ffffffffffffffffffffffffffffffffffffffff1681526020019081526020016000206040518060c001604052806001846104489190611053565b81526020013373ffffffffffffffffffffffffffffffffffffffff168152602001868152602001858152602001848152602001600073ffffffffffffffffffffffffffffffffffffffff1681525090806001815401808255809150506001900390600052602060002090600602016000909190919091506000820151816000015560208201518160010160006101000a81548173ffffffffffffffffffffffffffffffffffffffff021916908373ffffffffffffffffffffffffffffffffffffffff160217905550604082015181600201908051906020019061052c9291906108ab565b50606082015181600301556080820151816004015560a08201518160050160006101000a81548173ffffffffffffffffffffffffffffffffffffffff021916908373ffffffffffffffffffffffffffffffffffffffff160217905550505050505050565b6060600360008373ffffffffffffffffffffffffffffffffffffffff1673ffffffffffffffffffffffffffffffffffffffff168152602001908152602001600020805480602002602001604051908101604052809291908181526020016000905b8282101561077f57838290600052602060002090600602016040518060c0016040529081600082015481526020016001820160009054906101000a900473ffffffffffffffffffffffffffffffffffffffff1673ffffffffffffffffffffffffffffffffffffffff1673ffffffffffffffffffffffffffffffffffffffff168152602001600282018054610684906110d8565b80601f01602080910402602001604051908101604052809291908181526020018280546106b0906110d8565b80156106fd5780601f106106d2576101008083540402835291602001916106fd565b820191906000526020600020905b8154815290600101906020018083116106e057829003601f168201915b5050505050815260200160038201548152602001600482015481526020016005820160009054906101000a900473ffffffffffffffffffffffffffffffffffffffff1673ffffffffffffffffffffffffffffffffffffffff1673ffffffffffffffffffffffffffffffffffffffff1681525050815260200190600101906105f1565b505050509050919050565b600360205281600052604060002081815481106107a657600080fd5b9060005260206000209060060201600091509150508060000154908060010160009054906101000a900473ffffffffffffffffffffffffffffffffffffffff16908060020180546107f6906110d8565b80601f0160208091040260200160405190810160405280929190818152602001828054610822906110d8565b801561086f5780601f106108445761010080835404028352916020019161086f565b820191906000526020600020905b81548152906001019060200180831161085257829003601f168201915b5050505050908060030154908060040154908060050160009054906101000a900473ffffffffffffffffffffffffffffffffffffffff16905086565b8280546108b7906110d8565b90600052602060002090601f0160209004810192826108d95760008555610920565b82601f106108f257805160ff1916838001178555610920565b82800160010185558215610920579182015b8281111561091f578251825591602001919060010190610904565b5b50905061092d9190610931565b5090565b5b8082111561094a576000816000905550600101610932565b5090565b600073ffffffffffffffffffffffffffffffffffffffff82169050919050565b60006109798261094e565b9050919050565b6109898161096e565b82525050565b60006020820190506109a46000830184610980565b92915050565b6000604051905090565b600080fd5b600080fd5b6109c78161096e565b81146109d257600080fd5b50565b6000813590506109e4816109be565b92915050565b600060208284031215610a00576109ff6109b4565b5b6000610a0e848285016109d5565b91505092915050565b60008115159050919050565b610a2c81610a17565b82525050565b6000602082019050610a476000830184610a23565b92915050565b600080fd5b600080fd5b6000601f19601f8301169050919050565b7f4e487b7100000000000000000000000000000000000000000000000000000000600052604160045260246000fd5b610aa082610a57565b810181811067ffffffffffffffff82111715610abf57610abe610a68565b5b80604052505050565b6000610ad26109aa565b9050610ade8282610a97565b919050565b600067ffffffffffffffff821115610afe57610afd610a68565b5b610b0782610a57565b9050602081019050919050565b82818337600083830152505050565b6000610b36610b3184610ae3565b610ac8565b905082815260208101848484011115610b5257610b51610a52565b5b610b5d848285610b14565b509392505050565b600082601f830112610b7a57610b79610a4d565b5b8135610b8a848260208601610b23565b91505092915050565b6000819050919050565b610ba681610b93565b8114610bb157600080fd5b50565b600081359050610bc381610b9d565b92915050565b600080600060608486031215610be257610be16109b4565b5b600084013567ffffffffffffffff811115610c0057610bff6109b9565b5b610c0c86828701610b65565b9350506020610c1d86828701610bb4565b9250506040610c2e86828701610bb4565b9150509250925092565b600081519050919050565b600082825260208201905092915050565b6000819050602082019050919050565b610c6d81610b93565b82525050565b610c7c8161096e565b82525050565b600081519050919050565b600082825260208201905092915050565b60005b83811015610cbc578082015181840152602081019050610ca1565b83811115610ccb576000848401525b50505050565b6000610cdc82610c82565b610ce68185610c8d565b9350610cf6818560208601610c9e565b610cff81610a57565b840191505092915050565b600060c083016000830151610d226000860182610c64565b506020830151610d356020860182610c73565b5060408301518482036040860152610d4d8282610cd1565b9150506060830151610d626060860182610c64565b506080830151610d756080860182610c64565b5060a0830151610d8860a0860182610c73565b508091505092915050565b6000610d9f8383610d0a565b905092915050565b6000602082019050919050565b6000610dbf82610c38565b610dc98185610c43565b935083602082028501610ddb85610c54565b8060005b85811015610e175784840389528151610df88582610d93565b9450610e0383610da7565b925060208a01995050600181019050610ddf565b50829750879550505050505092915050565b60006020820190508181036000830152610e438184610db4565b905092915050565b60008060408385031215610e6257610e616109b4565b5b6000610e70858286016109d5565b9250506020610e8185828601610bb4565b9150509250929050565b610e9481610b93565b82525050565b600082825260208201905092915050565b6000610eb682610c82565b610ec08185610e9a565b9350610ed0818560208601610c9e565b610ed981610a57565b840191505092915050565b600060c082019050610ef96000830189610e8b565b610f066020830188610980565b8181036040830152610f188187610eab565b9050610f276060830186610e8b565b610f346080830185610e8b565b610f4160a0830184610980565b979650505050505050565b7f416c726561647920526567697374657265640000000000000000000000000000600082015250565b6000610f82601283610e9a565b9150610f8d82610f4c565b602082019050919050565b60006020820190508181036000830152610fb181610f75565b9050919050565b7f4e6f7420526567697374657265642061732061756374696f6e65657200000000600082015250565b6000610fee601c83610e9a565b9150610ff982610fb8565b602082019050919050565b6000602082019050818103600083015261101d81610fe1565b9050919050565b7f4e487b7100000000000000000000000000000000000000000000000000000000600052601160045260246000fd5b600061105e82610b93565b915061106983610b93565b9250827fffffffffffffffffffffffffffffffffffffffffffffffffffffffffffffffff0382111561109e5761109d611024565b5b828201905092915050565b7f4e487b7100000000000000000000000000000000000000000000000000000000600052602260045260246000fd5b600060028204905060018216806110f057607f821691505b60208210811415611104576111036110a9565b5b5091905056fea26469706673582212209387a51fc5d2094959bf5495f3ad2c22eb85c457291a3c7e09fefe720367a81d64736f6c634300080b0033",
  "immutableReferences": {},
  "source": "// SPDX-License-Identifier: MIT\r\npragma solidity >=0.4.22 <0.9.0;\r\n\r\ncontract Auction\r\n{\r\n    struct Item\r\n    {\r\n       uint itemID;\r\n       address auctioneer_addr;\r\n       string item_url;\r\n       uint InitialPrice;\r\n       uint currentBid;\r\n       address soldto_addr;\r\n    }\r\n\r\n    address AuctionOwner; // address of auction owner\r\n    mapping(address=>uint) bidders; // address of biders which map to the amount of bid placed\r\n    mapping(address=>uint) Pending_returns; // address of all bidders that were outbidded and are eligible for a return amount\r\n    \r\n\r\n    mapping(address=>Item[]) public BidItems; // store BidItems\r\n    mapping(address=>bool) public RegisteredAuctioneers; // register as an auctioneer\r\n    \r\n    modifier isAlreadyRegistered(){ // check if an address is already registered\r\n       \r\n       require(RegisteredAuctioneers[msg.sender] == false , 'Already Registered');\r\n       _;\r\n    }\r\n       modifier isRegistered(){ // check if an address is registered as auctioneer\r\n       \r\n       require(RegisteredAuctioneers[msg.sender] == true , 'Not Registered as auctioneer');\r\n       _;\r\n    }\r\n    constructor()\r\n    {\r\n        AuctionOwner = msg.sender;\r\n    }\r\n\r\n   \r\n    function RegisterAsAuctioneer()public isAlreadyRegistered { // Register as an auctioneer\r\n        RegisteredAuctioneers[msg.sender] = true;\r\n    }\r\n\r\n    // Registed a Bid Item\r\n    function RegisterBidItem(string memory _item_url,uint _InitialPrice,uint _currentBid) public isRegistered {\r\n        \r\n        uint ItemNumber = BidItems[msg.sender].length; // get  length of current items of the auctioneer\r\n        BidItems[msg.sender].push(Item(ItemNumber+1,msg.sender,_item_url,_InitialPrice,_currentBid,address(0))); // set item \r\n\r\n    }\r\n\r\n   function GetBidItem(address _auctioneer) public view returns(Item[] memory){ // return all Items of an address\r\n     return BidItems[_auctioneer];\r\n    }\r\n     \r\n    function GetOwner() external view returns(address) { // return address of auction owner\r\n        return AuctionOwner;\r\n    }\r\n\r\n    function GetRegistrationStatus(address _addr) external view returns(bool){ // return if address is registered\r\n        return RegisteredAuctioneers[_addr];\r\n    }\r\n\r\n}",
  "sourcePath": "D:\\BlockChain Projects\\Auction Dapp Msc Project\\auction-dapp\\src\\contracts\\Auction.sol",
  "compiler": {
    "name": "solc",
    "version": "0.8.11+commit.d7f03943.Emscripten.clang"
  },
  "schemaVersion": "3.4.4",
  "updatedAt": "2023-02-12T20:33:45.460Z",
  "networkType": "ethereum",
  "devdoc": {
    "kind": "dev",
    "methods": {},
    "version": 1
  },
  "userdoc": {
    "kind": "user",
    "methods": {},
    "version": 1
  }
}