{
  "contractName": "Auction",
  "abi": [
    {
      "inputs": [],
      "stateMutability": "nonpayable",
      "type": "constructor"
    },
    {
      "inputs": [],
      "name": "GetOwner",
      "outputs": [
        {
          "internalType": "address",
          "name": "",
          "type": "address"
        }
      ],
      "stateMutability": "view",
      "type": "function",
      "constant": true
    }
  ],
  "bytecode": "0x608060405234801561001057600080fd5b50336000806101000a81548173ffffffffffffffffffffffffffffffffffffffff021916908373ffffffffffffffffffffffffffffffffffffffff16021790555060fc8061005f6000396000f3fe6080604052348015600f57600080fd5b506004361060285760003560e01c80630ae50a3914602d575b600080fd5b60336047565b604051603e919060ad565b60405180910390f35b60008060009054906101000a900473ffffffffffffffffffffffffffffffffffffffff16905090565b600073ffffffffffffffffffffffffffffffffffffffff82169050919050565b60006099826070565b9050919050565b60a7816090565b82525050565b600060208201905060c0600083018460a0565b9291505056fea26469706673582212200f5148a9d9df2788346912d933b639e0212cd7c59c71a8e32280af6a944fc55264736f6c634300080b0033",
  "immutableReferences": {},
  "source": "// SPDX-License-Identifier: MIT\r\npragma solidity >=0.4.22 <0.9.0;\r\n\r\ncontract Auction\r\n{\r\n    address AuctionOwner; // address of auction owner\r\n    mapping(address=>uint) bidders; // address of biders which map to the amount of bid placed\r\n    mapping(address=>uint) Pending_returns; // address of all bidders that were outbidded and are eligible for a return amount\r\n   \r\n    constructor()\r\n    {\r\n        AuctionOwner = msg.sender;\r\n    }\r\n\r\n    function GetOwner() external view returns(address)\r\n    {\r\n        return AuctionOwner;\r\n    }\r\n\r\n}",
  "sourcePath": "D:\\BlockChain Projects\\Auction Dapp Msc Project\\auction-dapp\\src\\contracts\\Auction.sol",
  "compiler": {
    "name": "solc",
    "version": "0.8.11+commit.d7f03943.Emscripten.clang"
  },
  "schemaVersion": "3.4.4",
  "updatedAt": "2023-02-06T19:25:25.767Z",
  "networkType": "ethereum",
  "devdoc": {
    "kind": "dev",
    "methods": {},
    "version": 1
  },
  "userdoc": {
    "kind": "user",
    "methods": {},
    "version": 1
  }
}