{
  "contractName": "Auction",
  "abi": [
    {
      "inputs": [],
      "stateMutability": "nonpayable",
      "type": "constructor"
    },
    {
      "inputs": [
        {
          "internalType": "address",
          "name": "",
          "type": "address"
        },
        {
          "internalType": "uint256",
          "name": "",
          "type": "uint256"
        }
      ],
      "name": "BidItems",
      "outputs": [
        {
          "internalType": "uint256",
          "name": "itemID",
          "type": "uint256"
        },
        {
          "internalType": "address",
          "name": "auctioneer_addr",
          "type": "address"
        },
        {
          "internalType": "string",
          "name": "item_url",
          "type": "string"
        },
        {
          "internalType": "uint256",
          "name": "InitialPrice",
          "type": "uint256"
        },
        {
          "internalType": "uint256",
          "name": "currentBid",
          "type": "uint256"
        },
        {
          "internalType": "address",
          "name": "soldto_addr",
          "type": "address"
        }
      ],
      "stateMutability": "view",
      "type": "function",
      "constant": true
    },
    {
      "inputs": [
        {
          "internalType": "address",
          "name": "",
          "type": "address"
        }
      ],
      "name": "RegisteredAuctioneers",
      "outputs": [
        {
          "internalType": "bool",
          "name": "",
          "type": "bool"
        }
      ],
      "stateMutability": "view",
      "type": "function",
      "constant": true
    },
    {
      "inputs": [
        {
          "internalType": "uint256",
          "name": "",
          "type": "uint256"
        }
      ],
      "name": "RegisteredAuctioneersAddresses",
      "outputs": [
        {
          "internalType": "address",
          "name": "",
          "type": "address"
        }
      ],
      "stateMutability": "view",
      "type": "function",
      "constant": true
    },
    {
      "inputs": [],
      "name": "RegisterAsAuctioneer",
      "outputs": [],
      "stateMutability": "nonpayable",
      "type": "function"
    },
    {
      "inputs": [
        {
          "internalType": "string",
          "name": "_item_url",
          "type": "string"
        },
        {
          "internalType": "uint256",
          "name": "_InitialPrice",
          "type": "uint256"
        },
        {
          "internalType": "uint256",
          "name": "_currentBid",
          "type": "uint256"
        }
      ],
      "name": "RegisterBidItem",
      "outputs": [],
      "stateMutability": "nonpayable",
      "type": "function"
    },
    {
      "inputs": [
        {
          "internalType": "address",
          "name": "_auctioneer",
          "type": "address"
        }
      ],
      "name": "GetBidItem",
      "outputs": [
        {
          "components": [
            {
              "internalType": "uint256",
              "name": "itemID",
              "type": "uint256"
            },
            {
              "internalType": "address",
              "name": "auctioneer_addr",
              "type": "address"
            },
            {
              "internalType": "string",
              "name": "item_url",
              "type": "string"
            },
            {
              "internalType": "uint256",
              "name": "InitialPrice",
              "type": "uint256"
            },
            {
              "internalType": "uint256",
              "name": "currentBid",
              "type": "uint256"
            },
            {
              "internalType": "address",
              "name": "soldto_addr",
              "type": "address"
            }
          ],
          "internalType": "struct Auction.Item[]",
          "name": "",
          "type": "tuple[]"
        }
      ],
      "stateMutability": "view",
      "type": "function",
      "constant": true
    },
    {
      "inputs": [],
      "name": "GetOwner",
      "outputs": [
        {
          "internalType": "address",
          "name": "",
          "type": "address"
        }
      ],
      "stateMutability": "view",
      "type": "function",
      "constant": true
    },
    {
      "inputs": [
        {
          "internalType": "address",
          "name": "_addr",
          "type": "address"
        }
      ],
      "name": "GetRegistrationStatus",
      "outputs": [
        {
          "internalType": "bool",
          "name": "",
          "type": "bool"
        }
      ],
      "stateMutability": "view",
      "type": "function",
      "constant": true
    },
    {
      "inputs": [],
      "name": "GetAddressesCount",
      "outputs": [
        {
          "internalType": "uint256",
          "name": "",
          "type": "uint256"
        }
      ],
      "stateMutability": "view",
      "type": "function",
      "constant": true
    },
    {
      "inputs": [
        {
          "internalType": "uint256",
          "name": "index",
          "type": "uint256"
        }
      ],
      "name": "GetRegisteredAddresses",
      "outputs": [
        {
          "internalType": "address",
          "name": "",
          "type": "address"
        }
      ],
      "stateMutability": "view",
      "type": "function",
      "constant": true
    }
  ],
  "bytecode": "0x608060405234801561001057600080fd5b50336000806101000a81548173ffffffffffffffffffffffffffffffffffffffff021916908373ffffffffffffffffffffffffffffffffffffffff1602179055506114dd806100606000396000f3fe608060405234801561001057600080fd5b506004361061009e5760003560e01c806348040eb01161006657806348040eb01461015b5780638449b17414610179578063c932b93514610195578063cc647207146101c5578063f026e44f146101f55761009e565b8063048a2856146100a35780630ae50a39146100d35780632e45568a146100f157806335158e6d146101215780634430ce6d1461012b575b600080fd5b6100bd60048036038101906100b89190610c52565b61022a565b6040516100ca9190610cc0565b60405180910390f35b6100db610269565b6040516100e89190610cc0565b60405180910390f35b61010b60048036038101906101069190610d07565b610292565b6040516101189190610d4f565b60405180910390f35b6101296102b2565b005b61014560048036038101906101409190610d07565b610402565b6040516101529190610d4f565b60405180910390f35b610163610458565b6040516101709190610d79565b60405180910390f35b610193600480360381019061018e9190610eda565b6104f4565b005b6101af60048036038101906101aa9190610d07565b61076d565b6040516101bc919061113a565b60405180910390f35b6101df60048036038101906101da9190610c52565b610967565b6040516101ec9190610cc0565b60405180910390f35b61020f600480360381019061020a919061115c565b610a44565b604051610221969594939291906111e6565b60405180910390f35b6003818154811061023a57600080fd5b906000526020600020016000915054906101000a900473ffffffffffffffffffffffffffffffffffffffff1681565b60008060009054906101000a900473ffffffffffffffffffffffffffffffffffffffff16905090565b60056020528060005260406000206000915054906101000a900460ff1681565b60001515600560003373ffffffffffffffffffffffffffffffffffffffff1673ffffffffffffffffffffffffffffffffffffffff16815260200190815260200160002060009054906101000a900460ff16151514610345576040517f08c379a000000000000000000000000000000000000000000000000000000000815260040161033c9061129a565b60405180910390fd5b6001600560003373ffffffffffffffffffffffffffffffffffffffff1673ffffffffffffffffffffffffffffffffffffffff16815260200190815260200160002060006101000a81548160ff0219169083151502179055506003339080600181540180825580915050600190039060005260206000200160009091909190916101000a81548173ffffffffffffffffffffffffffffffffffffffff021916908373ffffffffffffffffffffffffffffffffffffffff160217905550565b6000600560008373ffffffffffffffffffffffffffffffffffffffff1673ffffffffffffffffffffffffffffffffffffffff16815260200190815260200160002060009054906101000a900460ff169050919050565b60008060009054906101000a900473ffffffffffffffffffffffffffffffffffffffff1673ffffffffffffffffffffffffffffffffffffffff163373ffffffffffffffffffffffffffffffffffffffff16146104e9576040517f08c379a00000000000000000000000000000000000000000000000000000000081526004016104e090611306565b60405180910390fd5b600380549050905090565b60011515600560003373ffffffffffffffffffffffffffffffffffffffff1673ffffffffffffffffffffffffffffffffffffffff16815260200190815260200160002060009054906101000a900460ff16151514610587576040517f08c379a000000000000000000000000000000000000000000000000000000000815260040161057e90611372565b60405180910390fd5b6000600460003373ffffffffffffffffffffffffffffffffffffffff1673ffffffffffffffffffffffffffffffffffffffff168152602001908152602001600020805490509050600460003373ffffffffffffffffffffffffffffffffffffffff1673ffffffffffffffffffffffffffffffffffffffff1681526020019081526020016000206040518060c0016040528060018461062591906113c1565b81526020013373ffffffffffffffffffffffffffffffffffffffff168152602001868152602001858152602001848152602001600073ffffffffffffffffffffffffffffffffffffffff1681525090806001815401808255809150506001900390600052602060002090600602016000909190919091506000820151816000015560208201518160010160006101000a81548173ffffffffffffffffffffffffffffffffffffffff021916908373ffffffffffffffffffffffffffffffffffffffff1602179055506040820151816002019080519060200190610709929190610b65565b50606082015181600301556080820151816004015560a08201518160050160006101000a81548173ffffffffffffffffffffffffffffffffffffffff021916908373ffffffffffffffffffffffffffffffffffffffff160217905550505050505050565b6060600460008373ffffffffffffffffffffffffffffffffffffffff1673ffffffffffffffffffffffffffffffffffffffff168152602001908152602001600020805480602002602001604051908101604052809291908181526020016000905b8282101561095c57838290600052602060002090600602016040518060c0016040529081600082015481526020016001820160009054906101000a900473ffffffffffffffffffffffffffffffffffffffff1673ffffffffffffffffffffffffffffffffffffffff1673ffffffffffffffffffffffffffffffffffffffff16815260200160028201805461086190611446565b80601f016020809104026020016040519081016040528092919081815260200182805461088d90611446565b80156108da5780601f106108af576101008083540402835291602001916108da565b820191906000526020600020905b8154815290600101906020018083116108bd57829003601f168201915b5050505050815260200160038201548152602001600482015481526020016005820160009054906101000a900473ffffffffffffffffffffffffffffffffffffffff1673ffffffffffffffffffffffffffffffffffffffff1673ffffffffffffffffffffffffffffffffffffffff1681525050815260200190600101906107ce565b505050509050919050565b60008060009054906101000a900473ffffffffffffffffffffffffffffffffffffffff1673ffffffffffffffffffffffffffffffffffffffff163373ffffffffffffffffffffffffffffffffffffffff16146109f8576040517f08c379a00000000000000000000000000000000000000000000000000000000081526004016109ef90611306565b60405180910390fd5b600060038381548110610a0e57610a0d611478565b5b9060005260206000200160009054906101000a900473ffffffffffffffffffffffffffffffffffffffff16905080915050919050565b60046020528160005260406000208181548110610a6057600080fd5b9060005260206000209060060201600091509150508060000154908060010160009054906101000a900473ffffffffffffffffffffffffffffffffffffffff1690806002018054610ab090611446565b80601f0160208091040260200160405190810160405280929190818152602001828054610adc90611446565b8015610b295780601f10610afe57610100808354040283529160200191610b29565b820191906000526020600020905b815481529060010190602001808311610b0c57829003601f168201915b5050505050908060030154908060040154908060050160009054906101000a900473ffffffffffffffffffffffffffffffffffffffff16905086565b828054610b7190611446565b90600052602060002090601f016020900481019282610b935760008555610bda565b82601f10610bac57805160ff1916838001178555610bda565b82800160010185558215610bda579182015b82811115610bd9578251825591602001919060010190610bbe565b5b509050610be79190610beb565b5090565b5b80821115610c04576000816000905550600101610bec565b5090565b6000604051905090565b600080fd5b600080fd5b6000819050919050565b610c2f81610c1c565b8114610c3a57600080fd5b50565b600081359050610c4c81610c26565b92915050565b600060208284031215610c6857610c67610c12565b5b6000610c7684828501610c3d565b91505092915050565b600073ffffffffffffffffffffffffffffffffffffffff82169050919050565b6000610caa82610c7f565b9050919050565b610cba81610c9f565b82525050565b6000602082019050610cd56000830184610cb1565b92915050565b610ce481610c9f565b8114610cef57600080fd5b50565b600081359050610d0181610cdb565b92915050565b600060208284031215610d1d57610d1c610c12565b5b6000610d2b84828501610cf2565b91505092915050565b60008115159050919050565b610d4981610d34565b82525050565b6000602082019050610d646000830184610d40565b92915050565b610d7381610c1c565b82525050565b6000602082019050610d8e6000830184610d6a565b92915050565b600080fd5b600080fd5b6000601f19601f8301169050919050565b7f4e487b7100000000000000000000000000000000000000000000000000000000600052604160045260246000fd5b610de782610d9e565b810181811067ffffffffffffffff82111715610e0657610e05610daf565b5b80604052505050565b6000610e19610c08565b9050610e258282610dde565b919050565b600067ffffffffffffffff821115610e4557610e44610daf565b5b610e4e82610d9e565b9050602081019050919050565b82818337600083830152505050565b6000610e7d610e7884610e2a565b610e0f565b905082815260208101848484011115610e9957610e98610d99565b5b610ea4848285610e5b565b509392505050565b600082601f830112610ec157610ec0610d94565b5b8135610ed1848260208601610e6a565b91505092915050565b600080600060608486031215610ef357610ef2610c12565b5b600084013567ffffffffffffffff811115610f1157610f10610c17565b5b610f1d86828701610eac565b9350506020610f2e86828701610c3d565b9250506040610f3f86828701610c3d565b9150509250925092565b600081519050919050565b600082825260208201905092915050565b6000819050602082019050919050565b610f7e81610c1c565b82525050565b610f8d81610c9f565b82525050565b600081519050919050565b600082825260208201905092915050565b60005b83811015610fcd578082015181840152602081019050610fb2565b83811115610fdc576000848401525b50505050565b6000610fed82610f93565b610ff78185610f9e565b9350611007818560208601610faf565b61101081610d9e565b840191505092915050565b600060c0830160008301516110336000860182610f75565b5060208301516110466020860182610f84565b506040830151848203604086015261105e8282610fe2565b91505060608301516110736060860182610f75565b5060808301516110866080860182610f75565b5060a083015161109960a0860182610f84565b508091505092915050565b60006110b0838361101b565b905092915050565b6000602082019050919050565b60006110d082610f49565b6110da8185610f54565b9350836020820285016110ec85610f65565b8060005b85811015611128578484038952815161110985826110a4565b9450611114836110b8565b925060208a019950506001810190506110f0565b50829750879550505050505092915050565b6000602082019050818103600083015261115481846110c5565b905092915050565b6000806040838503121561117357611172610c12565b5b600061118185828601610cf2565b925050602061119285828601610c3d565b9150509250929050565b600082825260208201905092915050565b60006111b882610f93565b6111c2818561119c565b93506111d2818560208601610faf565b6111db81610d9e565b840191505092915050565b600060c0820190506111fb6000830189610d6a565b6112086020830188610cb1565b818103604083015261121a81876111ad565b90506112296060830186610d6a565b6112366080830185610d6a565b61124360a0830184610cb1565b979650505050505050565b7f416c726561647920526567697374657265640000000000000000000000000000600082015250565b600061128460128361119c565b915061128f8261124e565b602082019050919050565b600060208201905081810360008301526112b381611277565b9050919050565b7f4e6f7420746865204f776e657200000000000000000000000000000000000000600082015250565b60006112f0600d8361119c565b91506112fb826112ba565b602082019050919050565b6000602082019050818103600083015261131f816112e3565b9050919050565b7f4e6f7420526567697374657265642061732061756374696f6e65657200000000600082015250565b600061135c601c8361119c565b915061136782611326565b602082019050919050565b6000602082019050818103600083015261138b8161134f565b9050919050565b7f4e487b7100000000000000000000000000000000000000000000000000000000600052601160045260246000fd5b60006113cc82610c1c565b91506113d783610c1c565b9250827fffffffffffffffffffffffffffffffffffffffffffffffffffffffffffffffff0382111561140c5761140b611392565b5b828201905092915050565b7f4e487b7100000000000000000000000000000000000000000000000000000000600052602260045260246000fd5b6000600282049050600182168061145e57607f821691505b6020821081141561147257611471611417565b5b50919050565b7f4e487b7100000000000000000000000000000000000000000000000000000000600052603260045260246000fdfea26469706673582212208a6ad205678e11a8121d0b7beba5907e95f212d784b0142a3fd7b0a645d135d964736f6c634300080b0033",
  "immutableReferences": {},
  "source": "// SPDX-License-Identifier: MIT\npragma solidity >=0.4.22 <0.9.0;\n\ncontract Auction {\n    struct Item {\n        uint256 itemID;\n        address auctioneer_addr;\n        string item_url;\n        uint256 InitialPrice;\n        uint256 currentBid;\n        address soldto_addr;\n    }\n\n    address AuctionOwner; // address of auction owner\n    mapping(address => uint256) bidders; // address of biders which map to the amount of bid placed\n    mapping(address => uint256) Pending_returns; // address of all bidders that were outbidded and are eligible for a return amount\n\n    address[] public RegisteredAuctioneersAddresses;\n    mapping(address => Item[]) public BidItems; // store BidItems\n    mapping(address => bool) public RegisteredAuctioneers; // register as an auctioneer\n\n    modifier isAlreadyRegistered() {\n        // check if an address is already registered\n\n        require(\n            RegisteredAuctioneers[msg.sender] == false,\n            \"Already Registered\"\n        );\n        _;\n    }\n    modifier isRegistered() {\n        // check if an address is registered as auctioneer\n\n        require(\n            RegisteredAuctioneers[msg.sender] == true,\n            \"Not Registered as auctioneer\"\n        );\n        _;\n    }\n    modifier isOwner() {\n        require(msg.sender == AuctionOwner, \"Not the Owner\");\n        _;\n    }\n\n    constructor() {\n        AuctionOwner = msg.sender;\n    }\n\n    function RegisterAsAuctioneer() public isAlreadyRegistered {\n        // Register as an auctioneer\n        RegisteredAuctioneers[msg.sender] = true;\n        RegisteredAuctioneersAddresses.push(msg.sender);\n    }\n\n    // Registed a Bid Item\n    function RegisterBidItem(\n        string memory _item_url,\n        uint256 _InitialPrice,\n        uint256 _currentBid\n    ) public isRegistered {\n        uint256 ItemNumber = BidItems[msg.sender].length; // get  length of current items of the auctioneer\n        BidItems[msg.sender].push(\n            Item(\n                ItemNumber + 1,\n                msg.sender,\n                _item_url,\n                _InitialPrice,\n                _currentBid,\n                address(0)\n            )\n        ); // set item\n    }\n\n    function GetBidItem(address _auctioneer)\n        public\n        view\n        returns (Item[] memory)\n    {\n        // return all Items of an address\n        return BidItems[_auctioneer];\n    }\n\n    function GetOwner() external view returns (address) {\n        // return address of auction owner\n        return AuctionOwner;\n    }\n\n    function GetRegistrationStatus(address _addr) external view returns (bool) {\n        // return if address is registered\n        return RegisteredAuctioneers[_addr];\n    }\n\n    function GetAddressesCount() public view isOwner returns (uint256) {\n        return RegisteredAuctioneersAddresses.length;\n    }\n\n    function GetRegisteredAddresses(uint256 index)\n        public\n        view\n        isOwner\n        returns (address)\n    {\n        address addr = RegisteredAuctioneersAddresses[index];\n        return addr;\n    }\n}\n",
  "sourcePath": "/Users/haniaaukloo/Documents/MSc Project/Msc_GroupProject/src/contracts/Auction.sol",
  "compiler": {
    "name": "solc",
    "version": "0.8.11+commit.d7f03943.Emscripten.clang"
  },
  "schemaVersion": "3.4.12",
  "updatedAt": "2023-02-24T17:48:22.601Z",
  "networkType": "ethereum",
  "devdoc": {
    "kind": "dev",
    "methods": {},
    "version": 1
  },
  "userdoc": {
    "kind": "user",
    "methods": {},
    "version": 1
  }
}